:100000000C9463000C94A60E0C94CD0E0C948B00F3
:100010000C948B000C948B000C948B000C948B0034
:100020000C948B000C948B000C948B000C948B0024
:100030000C948B000C948B000C948B000C948B0014
:100040000C949A0D0C948B000C94EA0F0C941C10D9
:100050000C948B000C948B000C948B000C948B00F4
:100060000C948B000C948B0000000008000201002F
:100070000003040700000000000000000102040863
:100080001020408001020408102001020408102002
:10009000040404040404040402020202020203032E
:1000A00003030303000000002300260029000000D2
:1000B0000000250028002B0000000000240027007D
:1000C0002A00A00E421011241FBECFEFD8E0DEBFE1
:1000D000CDBF13E0A0E0B1E0EEEFF3E202C0059087
:1000E0000D92A437B107D9F728E0A4E7B3E001C027
:1000F0001D92A83BB207E1F710E0C3E6D0E004C0D0
:100100002197FE010E94F711C136D107C9F70E945D
:10011000910E0C94A2110C940000E4E10E944201A3
:100120000895E2E10E9442010895EAE00E9442013E
:100130000895E1E00E9442010895E3E00E94420137
:100140000895E7E00E9442010895E5E00E9442011F
:100150000895E0E00E9442010895E2E00E94420119
:100160000895E4E00E9442010895ECE00E944201FB
:100170000895EBE10E9442010895EEE00E944201E1
:100180000895E8E00E9442010895E0E10E944201E2
:100190000895EAE10E9442010895E6E00E944201CA
:1001A0000895E8E10E9442010895E9E00E944201B9
:1001B0000895EBE00E9442010895EDE00E944201A3
:1001C0000895EFE00E9442010895E1E10E9442019A
:1001D0000895E3E10E9442010895E5E10E94420191
:1001E0000895E7E10E9442010895E9E10E94420179
:1001F0000895E6E10E944201089521968A929A921A
:10020000AA92BA92CA92DA92EA92FA920A931A934C
:100210002197E0916901F0916A010080F181E02D60
:10022000C083D1830895C0916B01D0916C01E881A6
:10023000F981C081D181219619910991F990E990B4
:10024000D990C990B990A9909990899021970895D3
:100250002F903F90E7E6F1E0CDB7DEB7EDBFFEBFF0
:100260003F922F9208952F903F90CDBFDEBF3F92D7
:100270002F920895E0E80E9442010895E0E40E9470
:10028000420108952F923F924F925F926F927F9218
:100290002FB62F92CF93DF937E2EF894E09100013A
:1002A000EF5FE0930001E13011F40E942801E0E0EB
:1002B000E0937901E72DE07849F00E949605F091EE
:1002C0007A01F17071F00E9449040BC0E72DEC3106
:1002D00040F4EE0FF0E0E65EFC4F0190F081E02D7F
:1002E0000995F0917901EF2FE17059F0F27011F05A
:1002F0000E94FD008F938F2F0E9491038F910E9487
:10030000130120910001215020930001222311F4B8
:100310000E943301DF91CF912F902FBE7F906F907D
:100320005F904F903F902F900895CF92DF92EF9281
:10033000FF920F931F93DC01EC91DB012C918E2F28
:100340008170C82ED12CE12CF12C8E2F8F7090E073
:10035000A0E0B0E0B695A79597958795DC01AA56E1
:10036000BC4F8C91C81AD108E108F108EE70422FF9
:10037000417050E060E070E0822F8F7090E0A0E06C
:10038000B0E0B695A79597958795DC01AA56BC4F26
:100390008C91481B510961097109822F8E70970158
:1003A000860101701127222733270E2B4170552714
:1003B00066277727482B81E090E00417150726076A
:1003C000370710F080E090E01F910F91FF90EF90C1
:1003D000DF90CF9008958F929F92AF92BF92EF924D
:1003E000FF920F931F93CF93DF937C014A015B0130
:1003F000B694A7949794879442305105610571058E
:10040000E0F0440F551F8701040F151FE401CC0FC6
:10041000DD1FCE0DDF1DB801CE010E949501892B95
:1004200061F0F801908181812881398131832083B5
:1004300098838983B501A401DBCFDF91CF911F9110
:100440000F91FF90EF90BF90AF909F908F90089585
:100450004F925F926F927F928F929F92AF92BF92D4
:10046000CF92DF92EF92FF920F931F93CF93DF9380
:1004700000D000D000D0CDB7DEB78C016A017B017F
:10048000DC018C91282F30E040E050E029833A8352
:100490004B835C8346015701880C991CAA1CBB1C2A
:1004A00029813A814B815C81281539054A055B0514
:1004B00008F442C0240135013FEF431A530A630A8E
:1004C000730A89819A81AB81BC8184159505A60543
:1004D000B70580F0B201660F771F600F711FC4016E
:1004E000880F991F800F911F0E949501892B11F091
:1004F000530142013401660C771C600E711ECC0C56
:10050000DD1CD801AC0DBD1DBE83AD83B301CD0193
:100510000E949501892B81F0ED81FE81908181817E
:10052000D3012D913C911197318320839C93119697
:100530008C9375016401AECF26960FB6F894DEBF9A
:100540000FBECDBFDF91CF911F910F91FF90EF9024
:10055000DF90CF90BF90AF909F908F907F906F90E3
:100560005F904F900895ECE4F5E040814F5F408349
:1005700050E060E070E0E82FEE0FFF0BEA54FD4F13
:100580000190F081E02D238530E0F901EA56FC4F1F
:10059000908191509083FA01EE0FFF1FE45BFA4FB8
:1005A000220F331F9170292B208381838CE495E0E7
:1005B0000C94EB01ECE4F5E040814F5F408350E0A8
:1005C00060E070E0E82FEE0FFF0BE455FD4F019067
:1005D000F081E02D9381FA01EE0FFF1FE45BFA4FEB
:1005E000908381838CE495E00C94EB01CF93DF93AF
:1005F000ECE4F5E080819FEF980F9083D281C38176
:1006000090E0880F991FDC01A45BBA4F8D919C91FB
:100610009383828341E050E060E070E0CF010E946C
:1006200028028D2F9C2FDF91CF9108958091710129
:1006300090917201A0917301B09174018F3F2FEFDF
:100640009207A207B20731F00497A105B10524F47F
:1006500081E0089580E0089582E00895880F990B65
:10066000FC01EA54FD4F0190F081E02D0084F185FA
:10067000E02D3097E9F0228121111AC021E0228378
:10068000DC01A455BD4F0D90BC91A02D13968C910B
:1006900013978183808190E0FC01EA56FC4F208112
:1006A00021502083880F991F2170822B13968C93E1
:1006B0000895880F990BFC01EA54FD4F0190F081D9
:1006C000E02D0084F185E02D309761F0228121300A
:1006D00049F412822181FC01E455FD4F0190F08123
:1006E000E02D238308958091750190917601A0916A
:1006F0007701B09178014091710150917201609140
:10070000730170917401481759076A077B0741F01C
:10071000E0916F01F091700121E024830C94DA02E2
:100720000895CF93DF93882391F0C0916901D09110
:100730006A01E0916D01F0916E018481833049F08E
:1007400081E08483809171010E94DA0202C0C0E0DE
:10075000D0E0E0916F01F0917001F0936E01E093B1
:100760006D0180916B0190916C0190936A0180936F
:100770006901809175013091760120917701909106
:1007800078018093710130937201209373019093EB
:10079000740192E094830E942E03CE01DF91CF91E9
:1007A0000895809171010E945903E0916D01F091CB
:1007B0006E018281882319F085E084830895148274
:1007C0000895CF93DF93282F220F330BF901E455BF
:1007D000FD4FC081D1819A81F901EA54FD4F01900A
:1007E000F081E02D2485921770F4911105C095E0F9
:1007F0009C8391E090937A010E94B3028A818F5F7B
:100800008A8380E001C084E0DF91CF910895E82FD2
:10081000EE0FFF0BE455FD4F0190F081E02D1182AA
:1008200010820C944B0E1F93CF93DF930E94F6021D
:10083000182F892F492F092E000C550B660B770BAB
:10084000409375015093760160937701709378011E
:10085000292F220F330BF901E455FD4FC081D181BF
:10086000D0937001C0936F01F901EA54FD4F2081CC
:10087000318130936C0120936B019C81953019F488
:100880000E9407041B8310927A01DF91CF911F9180
:100890000895E0917501F0917601EE0FFF1FE45588
:1008A000FD4F0190F081E02D90914E0583818917D5
:1008B00030F40E9473030E94130483E001C080E0BF
:1008C00080937901089581E0809379010C94130459
:1008D000EF92FF920F931F93CF93DF93C1E001C07C
:1008E000CC0F8A95EAF784E00E94E10305E113E06A
:1008F000D0E0F80181918F018C2319F08D2F0E9497
:10090000E103DF5FD430A9F702E113E08BE8E82EC2
:1009100082E0F82ED1E0F80181918F018C2339F02B
:10092000F70180819181FC01D6870E94CF04F2E01B
:10093000EF0EF11C83E00531180769F7DF91CF91C5
:100940001F910F91FF90EF9008950E941F07811152
:100950000E944007E0916D01F0916E0180819181CC
:10096000892B21F0809171010E9407090C9468087D
:100970000E941F0781110E944007E0916D01F091D4
:100980006E0180819181892B21F0809171010E94FB
:1009900007090C94500881E0809374030895AF9286
:1009A000BF92CF92DF92EF92FF920F931F93CF935C
:1009B000DF93FC01A081B181AD90BC90E501AC89D1
:1009C000BD89109739F0428553856485758530E07F
:1009D00020E017C0D50155969C938E935497579657
:1009E0009C938E93569715821482138212825BC059
:1009F00012968D919C9113973A2F2B2F009779F097
:100A0000DC011A96CD90DD90ED90FC901D974C1571
:100A10005D056E057F0560F7CD01A32FB22F93838F
:100A20008283B583A483009719F0EC01FD83EC83E6
:100A3000109729F01396FC93EE93129705C0D501F9
:100A40005596FC93EE935497E501AE89BF891A96AB
:100A50008D919D910D90BC91A02D088919892A89AD
:100A60003B8980179107A207B30780F40417150785
:100A70002607370728F0481759076A077B0798F4B5
:100A8000D5015796FC93EE9356970DC004171507A2
:100A90002607370740F4481759076A077B0718F4F9
:100AA000E501FF8BEE8BDF91CF911F910F91FF90AE
:100AB000EF90DF90CF90BF90AF900895CF93DF93EA
:100AC000DC01ED91FC9111970190F081E02D84897A
:100AD00095891296CD91DC911397A817B90711F457
:100AE000D58BC48B86899789A817B90711F4D78B42
:100AF000C68B209731F014968D919C9115979D830C
:100B00008C8314960D90BC91A02D109721F0139614
:100B1000DC93CE93129786899789892B21F4848957
:100B20009589978B868BDF91CF910895EF92FF92F5
:100B30000F931F93CF93DF93FC018091740388235D
:100B400009F4B5C084859585A685B7850196A11D54
:100B5000B11D84879587A687B787408151816281BF
:100B6000738184179507A607B70709F0A0C04089CD
:100B70005189628973894F5F5F4F6F4F7F4F8481C7
:100B80009581A681B78184179507A607B70718F442
:100B900040E050E0BA01408B518B628B738B14861E
:100BA000158616861786C689D789209709F47FC0CF
:100BB0008A859B85AC85BD85481759076A077B07E1
:100BC00009F075C0CE01DC011296ED90FC901397F0
:100BD000E114F10471F0D7011A960D911D912D9138
:100BE0003C911D97401751076207730711F4C70125
:100BF000EACF2C813D812115310529F0D9011396C9
:100C0000FC92EE921297E114F10429F0D7011596A7
:100C10003C932E93149724893589C217D30711F476
:100C2000F58AE48AE114F10419F0F78AE68A04C02F
:100C300024893589378B268B8F01FC011382128220
:100C4000EA80FB80E881F9810280F381E02DCE010A
:100C500009954E815F81688579854115510561054A
:100C6000710509F18A859B85AC85BD85840F951F2B
:100C7000A61FB71FF8014481558166817781481707
:100C800059076A077B0738F4841B950BA60BB70B33
:100C90000197A109B1098A879B87AC87BD87CE01DF
:100CA0000E94CF0401C01E86E701209749F6DF911C
:100CB000CF911F910F91FF90EF900895FC018281D9
:100CC0000C94E103FB014485A285B385FC01042E4D
:100CD000000C550B9A012E1B3F0B280F391F1216C3
:100CE00013061CF42D912193F5CF80E00895DA01CD
:100CF000109749F0ED91FC911197309721F0AB01DD
:100D0000BC01CD01099481E0089581E00895EF923E
:100D1000FF920F931F93CF937B01DC0112960D91ED
:100D20001C91139701151105F1F0D8011496ED915E
:100D3000FC911597B701C8010995C82F81110AC008
:100D4000F80180819181009741F0DC01ED91FC91E7
:100D5000099503C08E3009F4C0E0F80102811381C7
:100D6000CC2301F301C0C0E080E00E94EC068C2F90
:100D7000CF911F910F91FF90EF900895EF92FF9206
:100D80000F931F93CF93DF938C017B01FC01C285EE
:100D9000D38540855185CE010E9477068823A1F036
:100DA000F8012485F701DE01022E000C330BC90186
:100DB0008A1B9B0B8C0F9D1F181619061CF4819122
:100DC0008D93F5CF80E001C08EE0DF91CF911F9130
:100DD0000F91FF90EF90089580917A0181110C940A
:100DE00049040895DC01ED91FC91119720812223A3
:100DF00041F0218114968D919C911597820F911D40
:100E0000089580E090E008950E941F078091680196
:100E10000895809368010E9468040E94CB040C949A
:100E200063040C944A0ECF93C82F0E9416038111BD
:100E300002C00E94870E8C2FCF910C94910080915C
:100E400081038130D9F08091790390917A03A09148
:100E50007B03B0917C03892B8A2B8B2B79F481E067
:100E600040917D0350917E0360917F0370918003D8
:100E7000452B462B472B19F480E0089581E0089517
:100E80001092810310927D0310927E0310927F03D3
:100E9000109280031092790310927A0310927B03D0
:100EA00010927C038091750390917603A091770353
:100EB000B09178038093820390938303A09384037B
:100EC000B093850308950E948A0E809182039091C9
:100ED0008303A0918403B09185030196A11DB11DE8
:100EE0008093820390938303A0938403B09385033C
:100EF00080917D0390917E03A0917F03B091800348
:100F00000196A11DB11D80937D0390937E03A09354
:100F10007F03B0938003089580917D0390917E03B9
:100F2000A0917F03B09180030097A105B10569F1FD
:100F300040918203509183036091840370918503F3
:100F40004150510961097109409382035093830311
:100F500060938403709385030197A109B10980937D
:100F60007D0390937E03A0937F03B09380038091D1
:100F7000820390918303A0918403B0918503892B10
:100F80008A2B8B2B11F40C94880E089580917D038D
:100F900090917E03A0917F03B0918003892B8A2BCF
:100FA0008B2B89F48091790390917A03A0917B0334
:100FB000B0917C03892B8A2B8B2B29F40E948A0EFB
:100FC00081E080938103089580918103882321F03B
:100FD000109281030C94880E08950E948E0E8091C9
:100FE000820390918303A0918403B09185030196BD
:100FF000A11DB11D8093820390938303A09384036A
:10100000B09385038091790390917A03A0917B033B
:10101000B0917C030196A11DB11D8093790390933B
:101020007A03A0937B03B0937C03089580917903A6
:1010300090917A03A0917B03B0917C030097A10566
:10104000B10569F14091820350918303609184035B
:1010500070918503415051096109710940938203E0
:101060005093830360938403709385030197A109D0
:10107000B1098093790390937A03A0937B03B09393
:101080007C038091820390918303A0918403B091AB
:101090008503892B8A2B8B2B11F40C948C0E0895CD
:1010A0000E941F07882311F083E1089580E00895CE
:1010B000CF93C82F0E941F078C2F0E94E103C82FD7
:1010C00080917A0181110E9449048C2FCF9108955B
:1010D000CF930E941F07882311F0C3E101C0C0E035
:1010E000E0916D01F0916E018281815082830E94B6
:1010F000D10381E0809379010E9413048C2FCF915A
:101100000895CF93C82F0E941F07E0916D01F091C1
:101110006E018281815082838C2F0E94E103C82F4F
:10112000811108C00E94D10381E0809379010E945F
:10113000130407C0E0916D01F0916E0182818F5F11
:1011400082838C2FCF910895CF930E941F0788230D
:1011500011F0C3E101C0C0E0809171010E94590308
:101160000E9449048091710190917201A0917301D4
:10117000B0917401409175015091760160917701B1
:101180007091780184179507A607B70711F40E949C
:101190002E038C2FCF910895CF93DF93EC010E9403
:1011A0001F07882311F083E101C080E040917101A5
:1011B0005091720160917301709174014430510536
:1011C0006105710514F4488303C09091E20198838E
:1011D000DF91CF9108950F931F93CF93C82F8B0169
:1011E0000E941F07882311F083E101C080E0EC2FEB
:1011F000EE0FFF0BE455FD4F0190F081E02D94813F
:101200009370F8019083CF911F910F910895880FEB
:10121000990BFC01E455FD4FA081B181ED91FC914A
:101220001197309769F01D921C922091E2019381F1
:101230008481228314821382E92FF82F3097B9F723
:101240000895CF93C82F0E941F07882311F083E1D0
:1012500001C080E0EC2FF0E0EE0FFF1FEA5FFC4FD3
:10126000A081B1819091710112969C931297E091A7
:101270006D01F0916E012081318114963C932E9383
:101280001397B183A083938111969C9311972C910E
:1012900093819695921760F430E0D901AA56BC4F1D
:1012A0009C9191509C93220F331F9170292B238383
:1012B000CF910895CF93DF93C82F0E941F078823F3
:1012C00011F0D3E101C0D0E0EC2FF0E0EE0FFF1FF2
:1012D000EA5FFC4F0190F081E02DA0916D01B0918B
:1012E0006E01818113968C931397838194818D93E2
:1012F0009C93148213828091E20182830E944904AC
:101300008D2FDF91CF910895DC01ED91FC918481C7
:101310009581DC01ED91FC9109941F93CF93DF93AC
:10132000182FEB010E941F07882311F083E101C0F1
:1013300080E0E12FF0E0EE0FFF1FE557FD4F019039
:10134000F081E02D0190F081E02D0190F081E02D01
:1013500040815181628173814C835D836E837F8381
:101360004481558166817781488359836A837B8371
:101370004085518562857385488759876A877B8751
:10138000DF91CF911F9108958F929F92AF92BF925C
:10139000CF92DF92EF92FF920F931F93CF93C82FBC
:1013A0008B010E941F07882311F083E101C080E0B8
:1013B000EC2FF0E0EE0FFF1FE557FD4F0190F0819D
:1013C000E02D9685913029F5428553856485758594
:1013D0000190F081E02D0190F081E02DC088D1884E
:1013E000E288F3884C155D056E057F0540F4848026
:1013F0009580A680B780480D591D6A1D7B1D4C192C
:101400005D096E097F09F80140835183628373830C
:1014100001C085E0CF911F910F91FF90EF90DF9079
:10142000CF90BF90AF909F908F9008958F929F9292
:10143000AF92BF92CF92DF92EF92FF920F931F93E2
:10144000CF93DF93D82F4A015B01680179010E9495
:101450001F07882311F0C3E101C0C0E0ED2FF0E0C9
:10146000EE0FFF1FE557FD4F0190F081E02D8685BF
:10147000811130C0A081B1810D90BC91A02D5096FA
:101480004D915D916D917C915397480D591D6A1D49
:101490007B1D14968D919D910D90BC91A02D84176C
:1014A0009507A607B70740F4481B590B6A0B7B0B3F
:1014B00041505109610971094287538764877587D3
:1014C000C682D782E086F18681E08687CF010E94BE
:1014D000CF0401C0C7E08C2FDF91CF911F910F91F6
:1014E000FF90EF90DF90CF90BF90AF909F908F9044
:1014F00008958F929F92AF92BF92CF92DF92EF9218
:10150000FF920F931F93CF93DF93C82F4A015B0184
:10151000680179010E941F07882311F0D3E101C0FF
:10152000D0E0EC2FF0E0EE0FFF1FE557FD4F0190EC
:10153000F081E02D868581110EC082869386A48677
:10154000B586C682D782E086F18681E08687CF01A4
:101550000E94CF0401C0D7E08D2FDF91CF911F9162
:101560000F91FF90EF90DF90CF90BF90AF909F9042
:101570008F9008950F931F93CF93DF93C82F0E94EE
:101580001F07882311F0D3E101C0D0E0EC2FF0E079
:10159000EE0FFF1FE557FD4F00811181F801868591
:1015A000813031F4C8010E945E05F801168601C041
:1015B000D5E08D2FDF91CF911F910F910895CF939B
:1015C000DF93880F991FFC01E959FD4F0190F081CD
:1015D000E02D8585882369F0C285D385CF010A96E1
:1015E0000E94F206892B39F08A81882331F08CE041
:1015F00005C08AE003C08DE001C080E0DF91CF919B
:101600000895880F991FFC01E55AFD4F8081918153
:10161000DC01ED91FC9109949B01880F991FFC015D
:10162000E959FD4F60817181DB011696ED91FC91C6
:101630001797C9010994880F991FFC01E55AFD4FBE
:1016400080819181DC01ED91FC9160E070E0099571
:1016500080E0089526E040E052EC61E070E08BEA23
:1016600093E00E943D1161E08DE00E94060D62E072
:101670008CE00E94060D60E08EE00C94060DCF9386
:10168000DF9300D0CDB7DEB7BE016F5F7F4F809193
:101690000C0390910D030E94F10089819A81892B9E
:1016A00051F463EE71E08BEA93E00E94330F60E047
:1016B0008DE00E94420D89819A81019739F564EF8E
:1016C00071E08BEA93E00E94330F80919403909134
:1016D00095039C012F5F3F4F309395032093940314
:1016E0002531310514F461E004C04497449720F497
:1016F00060E08DE00E94420D8091940390919503EB
:10170000889724F0109295031092940389819A810E
:10171000029709F040C068E072E08BEA93E00E9413
:10172000330F8091920390919303019690939303CA
:1017300080939203069724F461E08DE00E94420DAD
:1017400080919203909193030697059720F460E0AF
:101750008DE00E94420D80919203909193030B972C
:10176000059720F461E08DE00E94420D8091920384
:10177000909193034097049720F460E08DE00E94DD
:10178000420D8091920390919303449724F010921C
:1017900093031092920389819A81039751F46CE12B
:1017A00072E08BEA93E00E94330F61E08DE00E94CB
:1017B000420D0E94B9000F900F90DF91CF910895D4
:1017C000EF92FF920F931F93CF93DF9300D0CDB78B
:1017D000DEB78EE00E942C0E8C01BE016F5F7F4F42
:1017E00080910E0390910F030E94F100809190036D
:1017F0009091910308171907E9F09801281B390BFC
:10180000C90137FF03C091958195910990938F038A
:1018100080938E036CE272E08BEA93E00E94330FB8
:1018200060918E0370918F034AE050E08BEA93E061
:101830000E94D80FE980FA8031E0E316F10471F1DB
:1018400080918C0390918D03009719F483E090E0D0
:101850001AC0019709F046C01093910300939003BA
:1018600080918E0390918F038436910524F4109219
:101870008B0310928A039C012456310924363105CA
:1018800038F481E090E090938B0380938A032AC020
:10189000883C91053CF182E090E0F5CF10939103F4
:1018A0000093900363E372E08BEA93E00E94330FAE
:1018B0004AE050E0B8018BEA93E00E94D80FF09222
:1018C0008D03E0928C038091900390919103081B0B
:1018D000190B17FF03C011950195110910938F0380
:1018E00000938E0365E472E08BEA93E00E94330F6D
:1018F00060918A0370918B034AE050E08BEA93E099
:101900000E94D80F6AE873E0809108039091090360
:101910000E94ED000E94B9000F900F90DF91CF91CF
:101920001F910F91FF90EF9008958EE00E942C0E72
:101930008CE00E94710D1092890310928803009729
:1019400051F48091860390918703019690938703C9
:101950008093860306C0019721F4109287031092AA
:10196000860380918603909187030A9734F081E083
:1019700090E0909389038093880368E873E08091F6
:101980000A0390910B030E94ED000C94B900809122
:1019900011030E94E900809110030E94E90081E593
:1019A00092E00E94A51180E00E9495000C94B9007D
:1019B00080EC91E00C943A010895833081F028F492
:1019C000813099F08230A1F008958730A9F08830F5
:1019D000B9F08430D1F4809180008F7D03C0809174
:1019E00080008F7780938000089584B58F7702C040
:1019F00084B58F7D84BD08958091B0008F7703C03A
:101A00008091B0008F7D8093B0000895CF93DF93D5
:101A100090E0FC01E458FF4F2491FC01E057FF4F98
:101A20008491882361F190E0880F991FFC01E854AC
:101A3000FF4FC591D491FC01E255FF4FA591B491A0
:101A4000611109C09FB7F89488812095822388830B
:101A5000EC912E230BC0623061F49FB7F89488811B
:101A6000322F309583238883EC912E2B2C939FBFAC
:101A700006C08FB7F894E8812E2B28838FBFDF91A3
:101A8000CF9108951F93CF93DF93282F30E0F90172
:101A9000E859FF4F8491F901E458FF4FD491F901BF
:101AA000E057FF4FC491CC23C1F0162F81110E9443
:101AB000DD0CEC2FF0E0EE0FFF1FE255FF4FA5917C
:101AC000B4919FB7F894111104C08C91D095D8238C
:101AD00002C0EC91DE2BDC939FBFDF91CF911F9171
:101AE0000895CF93DF93282F30E0F901E859FF4F95
:101AF0008491F901E458FF4FD491F901E057FF4F69
:101B0000C491CC2391F081110E94DD0CEC2FF0E008
:101B1000EE0FFF1FEC55FF4FA591B491EC91ED2313
:101B200081E090E021F480E002C080E090E0DF916D
:101B3000CF9108951F920F920FB60F9211242F93F9
:101B40003F934F935F936F937F938F939F93AF9345
:101B5000BF93EF93FF938091A2039091A303A09171
:101B6000A403B091A5033091A10323E0230F2D37E7
:101B700020F40196A11DB11D05C026E8230F029691
:101B8000A11DB11D2093A1038093A2039093A303F1
:101B9000A093A403B093A5038091A6039091A703FB
:101BA000A091A803B091A9030196A11DB11D809336
:101BB000A6039093A703A093A803B093A9030E9440
:101BC000D80CFF91EF91BF91AF919F918F917F9131
:101BD0006F915F914F913F912F910F900FBE0F909A
:101BE0001F90189584B5826084BD84B5816084BDE2
:101BF00085B5826085BD85B5816085BDEEE6F0E086
:101C0000808181608083E1E8F0E0108280818260E1
:101C10008083808181608083E0E8F0E08081816062
:101C20008083E1EBF0E0808184608083E0EBF0E092
:101C3000808181608083EAE7F0E080818460808336
:101C400080818260808380818160808380818068E0
:101C500080831092C10008958E3008F08E5020913C
:101C6000DD0190E4299F900111248770822B8093DD
:101C70007C0080917A00806480937A0080917A0061
:101C800086FDFCCF809178002091790090E0922B26
:101C90000895FFCFFFCFCF93DF93880F990BFC01FF
:101CA000EA54FD4FC081D181AC81BD8111978A81F9
:101CB0009B81A80FB91F2D85CD010197FD0132979A
:101CC000223019F421EB30E002C02DEC30E02C93EF
:101CD000DC013C939E818F819083DF018E93CF0145
:101CE00007971E928A179B07E1F780E8DF01189794
:101CF0008C93CF0144971E928A179B07E1F7A88126
:101D0000B9817597ED93FC93DF91CF910895089574
:101D100078940895F894089578940895F89408951F
:101D200008950E94F20D0E94900E0E94DC0C0E9409
:101D30002A0B8091AA030E94130780E090E0089587
:101D4000809119038093AA03089508951F920F921A
:101D50000FB60F9211242F933F934F935F936F937E
:101D60007F938F939F93AF93BF93EF93FF93E091F4
:101D7000DE01F091DF010995FF91EF91BF91AF91E5
:101D80009F918F917F916F915F914F913F912F9193
:101D90000F900FBE0F901F9018951F920F920FB6C5
:101DA0000F9211242F933F934F935F936F937F93E1
:101DB0008F939F93AF93BF93EF93FF93E091E001D5
:101DC000F091E1010995FF91EF91BF91AF919F9142
:101DD0008F917F916F915F914F913F912F910F90D4
:101DE0000FBE0F901F901895CF92DF92EF92FF9247
:101DF0000F931F93CF93DF936C017A018B01C0E0A7
:101E0000D0E0CE15DF0581F0D8016D918D01D601AE
:101E1000ED91FC910190F081E02DC6010995892B8F
:101E200011F02196EECF7E01C701DF91CF911F9176
:101E30000F91FF90EF90DF90CF900895611571059D
:101E400079F0FB0101900020E9F73197AF01461BC3
:101E5000570BDC01ED91FC910280F381E02D099498
:101E600080E090E008950C941E0FDC01ED91FC9150
:101E70000190F081E02D099462E573E00C941E0F4F
:101E80008F929F92AF92BF92EF92FF920F931F9308
:101E9000CF93DF93CDB7DEB7A1970FB6F894DEBF2F
:101EA0000FBECDBF7C01FA01CB0119A2223008F48C
:101EB0002AE08E010F5D1F4F822E912CA12CB12C98
:101EC000BF01A50194010E94D511F901CA01015079
:101ED00011096A3014F4605D01C0695CD8016C932B
:101EE000232B242B252B61F7B801C7010E941E0F5D
:101EF000A1960FB6F894DEBF0FBECDBFDF91CF9194
:101F00001F910F91FF90EF90BF90AF909F908F9097
:101F10000895CF92DF92EF92FF920F931F93CF938A
:101F2000DF932115310581F4DC01ED91FC910190E5
:101F3000F081E02D642FDF91CF911F910F91FF90E1
:101F4000EF90DF90CF9009942A30310501F577FFAB
:101F50001DC06A017B01EC016DE20E94350F8C010E
:101F600044275527BA014C195D096E097F092AE0FB
:101F7000CE010E94400F800F911FDF91CF911F91E2
:101F80000F91FF90EF90DF90CF9008952AE0DF91BE
:101F9000CF911F910F91FF90EF90DF90CF900C9415
:101FA000400F9A01AB01770F660B770B0C94890FEA
:101FB0000F931F93CF93DF93EC010E94D10F8C01FD
:101FC000CE010E943C0F800F911FDF91CF911F9196
:101FD0000F9108951F920F920FB60F9211242F9315
:101FE0008F939F93EF93FF93E091BB03F091BC031A
:101FF0008081E091C103F091C20382FD12C0908103
:102000008091C4038F5F8F732091C503821751F0B5
:10201000E091C403F0E0E555FC4F958F8093C40335
:1020200001C08081FF91EF919F918F912F910F902F
:102030000FBE0F901F9018951F920F920FB60F9220
:1020400011242F933F934F935F936F937F938F93BD
:102050009F93AF93BF93EF93FF938BEA93E00E941C
:10206000AC10FF91EF91BF91AF919F918F917F91B4
:102070006F915F914F913F912F910F900FBE0F90F5
:102080001F901895EBEAF3E01382128288EE93E03A
:10209000A0E0B0E084839583A683B78385E693E0D0
:1020A0009183808385EC90E09587848784EC90E031
:1020B0009787868780EC90E0918B808B81EC90E015
:1020C000938B828B82EC90E0958B848B86EC90E0F6
:1020D000978B868B118E128E138E148E0895FC01B1
:1020E000918D228D892F90E0805C9F4F821B9109FA
:1020F0008F7399270895FC01918D828D981731F087
:10210000828DE80FF11D858D90E008958FEF9FEF90
:102110000895FC01918D828D981761F0828DDF0109
:10212000A80FB11D5D968C91928D9F5F9F73928FCA
:1021300090E008958FEF9FEF0895FC01538D448D3B
:10214000252F30E0842F90E0821B930B541710F062
:10215000CF96089501970895FC01848DDF01A80FA3
:10216000B11DA35ABF4F2C91848D90E001968F73BF
:102170009927848FA689B7892C93A089B1898C91DE
:10218000837080648C93938D848D981306C002882D
:10219000F389E02D80818F7D80830895EF92FF92F7
:1021A0000F931F93CF93DF93EC0181E0888F9B8D7A
:1021B0008C8D981305C0E889F989808185FD26C03A
:1021C000F62E0B8D10E00F5F1F4F0F731127E02EBF
:1021D0008C8DE8120CC00FB607FCFACFE889F9899C
:1021E000808185FFF5CFCE010E94AC10F1CF8B8DA1
:1021F000FE01E80FF11DE35AFF4FF0829FB7F894FC
:102200000B8FEA89FB89808180620AC09FB7F894AE
:10221000EE89FF896083E889F98980818370806411
:1022200080839FBF81E090E0DF91CF911F910F915C
:10223000FF90EF900895CF93DF93EC01888D882372
:10224000C9F0EA89FB89808185FD05C0A889B98923
:102250008C9186FD0FC00FB607FCF5CF808185FFFE
:10226000F2CFA889B9898C9185FFEDCFCE010E946C
:10227000AC10E7CFDF91CF910895CF92DF92EF922C
:10228000FF921F93CF93DF93EC016A017B01122F22
:10229000E889F98982E080834115514E6105710515
:1022A000B1F060E079E08DE390E0A70196010E9433
:1022B000D511DA01C9010197A109B109B695A79510
:1022C000979587959C01211580E13807A8F0E8894A
:1022D000F989108260E874E88EE190E0A701960128
:1022E0000E94D511DA01C9010197A109B109B6957A
:1022F000A795979587959C01EC85FD853083EE85A4
:10230000FF852083188EEC89FD891083EA89FB897B
:10231000808180618083EA89FB89808188608083F5
:10232000EA89FB89808180688083EA89FB898081D2
:102330008F7D8083DF91CF911F91FF90EF90DF9091
:10234000CF900895F8940C94FD110F931F93CF93A1
:10235000DF93E091B408F091B508238121FF1BC001
:102360008C01D0E0C0E0F80181918F016091B40848
:102370007091B508DB011896ED91FC9119978823AF
:1023800031F00995892B79F3DFEFCFEFECCF8AE0BD
:102390000995892B19F08FEF9FEF02C08D2F9C2F8D
:1023A000DF91CF911F910F910895A1E21A2EAA1BE0
:1023B000BB1BFD010DC0AA1FBB1FEE1FFF1FA217F5
:1023C000B307E407F50720F0A21BB30BE40BF50BF2
:1023D000661F771F881F991F1A9469F7609570957B
:1023E000809590959B01AC01BD01CF010895EE0F42
:0E23F000FF1F0590F491E02D0994F894FFCFA3
:1023FE0000000000000000000000000000000000CF
:10240E0000000000000000000000000000000000BE
:10241E0000000000000000000000000000000000AE
:10242E00000000000000000000000000000000009E
:10243E00000000000000000000000000000000008E
:10244E00000000000000000000000000000000007E
:10245E000000000000000000FF0000F80200009CD9
:10246E0003FFFFFFFFFFFFFFFF00008506850691BC
:10247E00020000000000000000409C0000029A02D2
:10248E0000000000190000006400000002A302001A
:10249E000000006400000064000000020000000460
:1024AE000000000003000000000200000000010018
:1024BE0001000000FFFF000001000000000000000E
:1024CE0000000000000000000500FF000001A50E46
:1024DE00A50EFF5461736B20563A206C6564206F15
:1024EE0066660A005461736B20563A20736C6F77E0
:1024FE0020626C696E6B0A005461736B20563A2031
:10250E006661737420626C696E6B0A005461736B42
:10251E0020563A206C6564206F6E0A00582069734D
:10252E003A200053656E736F722076616C7565206C
:10253E0069733A20004D5F6D6573736167653A206C
:10254E000053687574646F776E0D0063025F0287C7
:10255E00066B0287067B027B026B0278020000BECE
:10256E000662067B01AE07025E060088020000BE10
:10257E000662067D01AC07025E06019D018E017F9B
:10258E0001C001840997025E0603C0018409A002FE
:10259E005E0600C0018409A9025E0602BB01B601F7
:1025AE00B101AC019C03EA02DC02CE02C002F802C9
:1025BE004A05AA050001C70C0000030401004805E6
:1025CE00B0070001950C000002030100AA074804A1
:1025DE000001E00B000001020100B008AA06000194
:1025EE003F0B00000001010058055A055000490E2E
:1025FE00000004000100D8010100000001000000ED
:10260E00010001010100000000001608E407ED07BB
:10261E00C607B8046307A5048C07A4085A09110756
:10262E008D095808C4098108160ACC08790A0907C9
:10263E00BA0A0407010BDF0A0C0B21091B0BEB086E
:10264E0068080D0A006E616E00696E66006F766630
:10265E000000000000CE10F40E9D101B116F1089AB
:04266E00107B1000CD
:00000001FF
