:100000000C9463000C948A0E0C94B10E0C948B002B
:100010000C948B000C948B000C948B000C948B0034
:100020000C948B000C948B000C948B000C948B0024
:100030000C948B000C948B000C948B000C948B0014
:100040000C947E0D0C948B000C94CE0F0C9400102D
:100050000C948B000C948B000C948B000C948B00F4
:100060000C948B000C948B0000000008000201002F
:100070000003040700000000000000000102040863
:100080001020408001020408102001020408102002
:10009000040404040404040402020202020203032E
:1000A00003030303000000002300260029000000D2
:1000B0000000250028002B0000000000240027007D
:1000C0002A00840E261011241FBECFEFD8E0DEBF19
:1000D000CDBF13E0A0E0B1E0E6ECF3E202C0059092
:1000E0000D92AC38B107D9F728E0ACE8B3E001C015
:1000F0001D92A03DB207E1F710E0C3E6D0E004C0D6
:100100002197FE010E94DB11C136D107C9F70E9479
:10011000750E0C9486110C940000E4E10E944201DB
:100120000895E2E10E9442010895EAE00E9442013E
:100130000895E1E00E9442010895E3E00E94420137
:100140000895E7E00E9442010895E5E00E9442011F
:100150000895E0E00E9442010895E2E00E94420119
:100160000895E4E00E9442010895ECE00E944201FB
:100170000895EBE10E9442010895EEE00E944201E1
:100180000895E8E00E9442010895E0E10E944201E2
:100190000895EAE10E9442010895E6E00E944201CA
:1001A0000895E8E10E9442010895E9E00E944201B9
:1001B0000895EBE00E9442010895EDE00E944201A3
:1001C0000895EFE00E9442010895E1E10E9442019A
:1001D0000895E3E10E9442010895E5E10E94420191
:1001E0000895E7E10E9442010895E9E10E94420179
:1001F0000895E6E10E944201089521968A929A921A
:10020000AA92BA92CA92DA92EA92FA920A931A934C
:100210002197E0916901F0916A010080F181E02D60
:10022000C083D1830895C0916B01D0916C01E881A6
:10023000F981C081D181219619910991F990E990B4
:10024000D990C990B990A9909990899021970895D3
:100250002F903F90E7E6F1E0CDB7DEB7EDBFFEBFF0
:100260003F922F9208952F903F90CDBFDEBF3F92D7
:100270002F920895E0E80E9442010895E0E40E9470
:10028000420108952F923F924F925F926F927F9218
:100290002FB62F92CF93DF937E2EF894E09100013A
:1002A000EF5FE0930001E13011F40E942801E0E0EB
:1002B000E0937901E72DE07849F00E949605F091EE
:1002C0007A01F17071F00E9449040BC0E72DEC3106
:1002D00040F4EE0FF0E0ED5CFC4F0190F081E02D7A
:1002E0000995F0917901EF2FE17059F0F27011F05A
:1002F0000E94FD008F938F2F0E9491038F910E9487
:10030000130120910001215020930001222311F4B8
:100310000E943301DF91CF912F902FBE7F906F907D
:100320005F904F903F902F900895CF92DF92EF9281
:10033000FF920F931F93DC01EC91DB012C918E2F28
:100340008170C82ED12CE12CF12C8E2F8F7090E073
:10035000A0E0B0E0B695A79597958795DC01A255EA
:10036000BC4F8C91C81AD108E108F108EE70422FF9
:10037000417050E060E070E0822F8F7090E0A0E06C
:10038000B0E0B695A79597958795DC01A255BC4F2F
:100390008C91481B510961097109822F8E70970158
:1003A000860101701127222733270E2B4170552714
:1003B00066277727482B81E090E00417150726076A
:1003C000370710F080E090E01F910F91FF90EF90C1
:1003D000DF90CF9008958F929F92AF92BF92EF924D
:1003E000FF920F931F93CF93DF937C014A015B0130
:1003F000B694A7949794879442305105610571058E
:10040000E0F0440F551F8701040F151FE401CC0FC6
:10041000DD1FCE0DDF1DB801CE010E949501892B95
:1004200061F0F801908181812881398131832083B5
:1004300098838983B501A401DBCFDF91CF911F9110
:100440000F91FF90EF90BF90AF909F908F90089585
:100450004F925F926F927F928F929F92AF92BF92D4
:10046000CF92DF92EF92FF920F931F93CF93DF9380
:1004700000D000D000D0CDB7DEB78C016A017B017F
:10048000DC018C91282F30E040E050E029833A8352
:100490004B835C8346015701880C991CAA1CBB1C2A
:1004A00029813A814B815C81281539054A055B0514
:1004B00008F442C0240135013FEF431A530A630A8E
:1004C000730A89819A81AB81BC8184159505A60543
:1004D000B70580F0B201660F771F600F711FC4016E
:1004E000880F991F800F911F0E949501892B11F091
:1004F000530142013401660C771C600E711ECC0C56
:10050000DD1CD801AC0DBD1DBE83AD83B301CD0193
:100510000E949501892B81F0ED81FE81908181817E
:10052000D3012D913C911197318320839C93119697
:100530008C9375016401AECF26960FB6F894DEBF9A
:100540000FBECDBFDF91CF911F910F91FF90EF9024
:10055000DF90CF90BF90AF909F908F907F906F90E3
:100560005F904F900895E4E6F5E040814F5F40834F
:1005700050E060E070E0E82FEE0FFF0BE353FD4F1B
:100580000190F081E02D238530E0F901E255FC4F28
:10059000908191509083FA01EE0FFF1FEC59FA4FB2
:1005A000220F331F9170292B2083818384E695E0ED
:1005B0000C94EB01E4E6F5E040814F5F408350E0AE
:1005C00060E070E0E82FEE0FFF0BED53FD4F019060
:1005D000F081E02D9381FA01EE0FFF1FEC59FA4FE5
:1005E0009083818384E695E00C94EB01CF93DF93B5
:1005F000E4E6F5E080819FEF980F9083D281C3817C
:1006000090E0880F991FDC01AC59BA4F8D919C91F5
:100610009383828341E050E060E070E0CF010E946C
:1006200028028D2F9C2FDF91CF9108958091710129
:1006300090917201A0917301B09174018F3F2FEFDF
:100640009207A207B20731F00497A105B10524F47F
:1006500081E0089580E0089582E00895880F990B65
:10066000FC01E353FD4F0190F081E02D0084F18502
:10067000E02D3097E9F0228121111AC021E0228378
:10068000DC01AD53BD4F0D90BC91A02D13968C9104
:1006900013978183808190E0FC01E255FC4F20811B
:1006A00021502083880F991F2170822B13968C93E1
:1006B0000895880F990BFC01E353FD4F0190F081E1
:1006C000E02D0084F185E02D309761F0228121300A
:1006D00049F412822181FC01ED53FD4F0190F0811C
:1006E000E02D238308958091750190917601A0916A
:1006F0007701B09178014091710150917201609140
:10070000730170917401481759076A077B0741F01C
:10071000E0916F01F091700121E024830C94DA02E2
:100720000895CF93DF93882391F0C0916901D09110
:100730006A01E0916D01F0916E018481833049F08E
:1007400081E08483809171010E94DA0202C0C0E0DE
:10075000D0E0E0916F01F0917001F0936E01E093B1
:100760006D0180916B0190916C0190936A0180936F
:100770006901809175013091760120917701909106
:1007800078018093710130937201209373019093EB
:10079000740192E094830E942E03CE01DF91CF91E9
:1007A0000895809171010E945903E0916D01F091CB
:1007B0006E018281882319F085E084830895148274
:1007C0000895CF93DF93282F220F330BF901ED53B8
:1007D000FD4FC081D1819A81F901E353FD4F019012
:1007E000F081E02D2485921770F4911105C095E0F9
:1007F0009C8391E090937A010E94B3028A818F5F7B
:100800008A8380E001C084E0DF91CF910895E82FD2
:10081000EE0FFF0BED53FD4F0190F081E02D1182A3
:1008200010820C942F0E1F93CF93DF930E94F60239
:10083000182F892F492F092E000C550B660B770BAB
:10084000409375015093760160937701709378011E
:10085000292F220F330BF901ED53FD4FC081D181B8
:10086000D0937001C0936F01F901E353FD4F2081D4
:10087000318130936C0120936B019C81953019F488
:100880000E9407041B8310927A01DF91CF911F9180
:100890000895E0917501F0917601EE0FFF1FED5381
:1008A000FD4F0190F081E02D9091660583818917BD
:1008B00030F40E9473030E94130483E001C080E0BF
:1008C00080937901089581E0809379010C94130459
:1008D000EF92FF920F931F93CF93DF93C1E001C07C
:1008E000CC0F8A95EAF784E00E94E1030EE213E060
:1008F000D0E0F80181918F018C2319F08D2F0E9497
:10090000E103DF5FD430A9F70AE213E087E9E82EBC
:1009100082E0F82ED1E0F80181918F018C2339F02B
:10092000F70180819181FC01D6870E94CF04F2E01B
:10093000EF0EF11C83E00E32180769F7DF91CF91BB
:100940001F910F91FF90EF9008950E941F07811152
:100950000E944007E0916D01F0916E0180819181CC
:10096000892B21F0809171010E9407090C9468087D
:100970000E941F0781110E944007E0916D01F091D4
:100980006E0180819181892B21F0809171010E94FB
:1009900007090C94500881E080938C030895AF926E
:1009A000BF92CF92DF92EF92FF920F931F93CF935C
:1009B000DF93FC01A081B181AD90BC90E501AC89D1
:1009C000BD89109739F0428553856485758530E07F
:1009D00020E017C0D50155969C938E935497579657
:1009E0009C938E93569715821482138212825BC059
:1009F00012968D919C9113973A2F2B2F009779F097
:100A0000DC011A96CD90DD90ED90FC901D974C1571
:100A10005D056E057F0560F7CD01A32FB22F93838F
:100A20008283B583A483009719F0EC01FD83EC83E6
:100A3000109729F01396FC93EE93129705C0D501F9
:100A40005596FC93EE935497E501AE89BF891A96AB
:100A50008D919D910D90BC91A02D088919892A89AD
:100A60003B8980179107A207B30780F40417150785
:100A70002607370728F0481759076A077B0798F4B5
:100A8000D5015796FC93EE9356970DC004171507A2
:100A90002607370740F4481759076A077B0718F4F9
:100AA000E501FF8BEE8BDF91CF911F910F91FF90AE
:100AB000EF90DF90CF90BF90AF900895CF93DF93EA
:100AC000DC01ED91FC9111970190F081E02D84897A
:100AD00095891296CD91DC911397A817B90711F457
:100AE000D58BC48B86899789A817B90711F4D78B42
:100AF000C68B209731F014968D919C9115979D830C
:100B00008C8314960D90BC91A02D109721F0139614
:100B1000DC93CE93129786899789892B21F4848957
:100B20009589978B868BDF91CF910895EF92FF92F5
:100B30000F931F93CF93DF93FC0180918C03882345
:100B400009F4B5C084859585A685B7850196A11D54
:100B5000B11D84879587A687B787408151816281BF
:100B6000738184179507A607B70709F0A0C04089CD
:100B70005189628973894F5F5F4F6F4F7F4F8481C7
:100B80009581A681B78184179507A607B70718F442
:100B900040E050E0BA01408B518B628B738B14861E
:100BA000158616861786C689D789209709F47FC0CF
:100BB0008A859B85AC85BD85481759076A077B07E1
:100BC00009F075C0CE01DC011296ED90FC901397F0
:100BD000E114F10471F0D7011A960D911D912D9138
:100BE0003C911D97401751076207730711F4C70125
:100BF000EACF2C813D812115310529F0D9011396C9
:100C0000FC92EE921297E114F10429F0D7011596A7
:100C10003C932E93149724893589C217D30711F476
:100C2000F58AE48AE114F10419F0F78AE68A04C02F
:100C300024893589378B268B8F01FC011382128220
:100C4000EA80FB80E881F9810280F381E02DCE010A
:100C500009954E815F81688579854115510561054A
:100C6000710509F18A859B85AC85BD85840F951F2B
:100C7000A61FB71FF8014481558166817781481707
:100C800059076A077B0738F4841B950BA60BB70B33
:100C90000197A109B1098A879B87AC87BD87CE01DF
:100CA0000E94CF0401C01E86E701209749F6DF911C
:100CB000CF911F910F91FF90EF900895FC018281D9
:100CC0000C94E103FB014485A285B385FC01042E4D
:100CD000000C550B9A012E1B3F0B280F391F1216C3
:100CE00013061CF42D912193F5CF80E00895DA01CD
:100CF000109749F0ED91FC911197309721F0AB01DD
:100D0000BC01CD01099481E0089581E00895EF923E
:100D1000FF920F931F93CF937B01DC0112960D91ED
:100D20001C91139701151105F1F0D8011496ED915E
:100D3000FC911597B701C8010995C82F81110AC008
:100D4000F80180819181009741F0DC01ED91FC91E7
:100D5000099503C08E3009F4C0E0F80102811381C7
:100D6000CC2301F301C0C0E080E00E94EC068C2F90
:100D7000CF911F910F91FF90EF900895EF92FF9206
:100D80000F931F93CF93DF938C017B01FC01C285EE
:100D9000D38540855185CE010E9477068823A1F036
:100DA000F8012485F701DE01022E000C330BC90186
:100DB0008A1B9B0B8C0F9D1F181619061CF4819122
:100DC0008D93F5CF80E001C08EE0DF91CF911F9130
:100DD0000F91FF90EF90089580917A0181110C940A
:100DE00049040895DC01ED91FC91119720812223A3
:100DF00041F0218114968D919C911597820F911D40
:100E0000089580E090E008950E941F078091680196
:100E10000895809368010E9468040E94CB040C949A
:100E200063040C942E0ECF93C82F0E9416038111D9
:100E300002C00E946B0E8C2FCF910C949100809178
:100E400099038130D9F08091910390919203A09100
:100E50009303B0919403892B8A2B8B2B79F481E037
:100E60004091950350919603609197037091980378
:100E7000452B462B472B19F480E0089581E0089517
:100E80001092990310929503109296031092970373
:100E90001092980310929103109292031092930370
:100EA0001092940380918D0390918E03A0918F03F3
:100EB000B091900380939A0390939B03A0939C031B
:100EC000B0939D0308950E946E0E80919A039091B5
:100ED0009B03A0919C03B0919D030196A11DB11DA0
:100EE00080939A0390939B03A0939C03B0939D03DC
:100EF0008091950390919603A0919703B0919803E8
:100F00000196A11DB11D8093950390939603A09324
:100F10009703B09398030895809195039091960359
:100F2000A0919703B09198030097A105B10569F1CD
:100F300040919A0350919B0360919C0370919D0393
:100F4000415051096109710940939A0350939B03E1
:100F500060939C0370939D030197A109B10980934D
:100F6000950390939603A0939703B0939803809171
:100F70009A0390919B03A0919C03B0919D03892BB0
:100F80008A2B8B2B11F40C946C0E08958091950391
:100F900090919603A0919703B0919803892B8A2B87
:100FA0008B2B89F48091910390919203A0919303EC
:100FB000B0919403892B8A2B8B2B29F40E946E0EFF
:100FC00081E080939903089580919903882321F00B
:100FD000109299030C946C0E08950E94720E8091E9
:100FE0009A0390919B03A0919C03B0919D0301965D
:100FF000A11DB11D80939A0390939B03A0939C0322
:10100000B0939D038091910390919203A0919303DB
:10101000B09194030196A11DB11D8093910390930B
:101020009203A0939303B093940308958091910346
:1010300090919203A0919303B09194030097A1051E
:10104000B10569F140919A0350919B0360919C0313
:1010500070919D03415051096109710940939A03B0
:1010600050939B0360939C0370939D030197A10988
:10107000B1098093910390939203A0939303B0934B
:10108000940380919A0390919B03A0919C03B0914B
:101090009D03892B8A2B8B2B11F40C94700E0895D1
:1010A0000E941F07882311F083E1089580E00895CE
:1010B000CF93C82F0E941F078C2F0E94E103C82FD7
:1010C00080917A0181110E9449048C2FCF9108955B
:1010D000CF930E941F07882311F0C3E101C0C0E035
:1010E000E0916D01F0916E018281815082830E94B6
:1010F000D10381E0809379010E9413048C2FCF915A
:101100000895CF93C82F0E941F07E0916D01F091C1
:101110006E018281815082838C2F0E94E103C82F4F
:10112000811108C00E94D10381E0809379010E945F
:10113000130407C0E0916D01F0916E0182818F5F11
:1011400082838C2FCF910895CF930E941F0788230D
:1011500011F0C3E101C0C0E0809171010E94590308
:101160000E9449048091710190917201A0917301D4
:10117000B0917401409175015091760160917701B1
:101180007091780184179507A607B70711F40E949C
:101190002E038C2FCF910895CF93DF93EC010E9403
:1011A0001F07882311F083E101C080E040917101A5
:1011B0005091720160917301709174014430510536
:1011C0006105710514F4488303C09091F10198837F
:1011D000DF91CF9108950F931F93CF93C82F8B0169
:1011E0000E941F07882311F083E101C080E0EC2FEB
:1011F000EE0FFF0BED53FD4F0190F081E02D948138
:101200009370F8019083CF911F910F910895880FEB
:10121000990BFC01ED53FD4FA081B181ED91FC9143
:101220001197309769F01D921C922091F1019381E2
:101230008481228314821382E92FF82F3097B9F723
:101240000895CF93C82F0E941F07882311F083E1D0
:1012500001C080E0EC2FF0E0EE0FFF1FE35EFC4FDB
:10126000A081B1819091710112969C931297E091A7
:101270006D01F0916E012081318114963C932E9383
:101280001397B183A083938111969C9311972C910E
:1012900093819695921760F430E0D901A255BC4F26
:1012A0009C9191509C93220F331F9170292B238383
:1012B000CF910895CF93DF93C82F0E941F078823F3
:1012C00011F0D3E101C0D0E0EC2FF0E0EE0FFF1FF2
:1012D000E35EFC4F0190F081E02DA0916D01B09193
:1012E0006E01818113968C931397838194818D93E2
:1012F0009C93148213828091F10182830E9449049D
:101300008D2FDF91CF910895DC01ED91FC918481C7
:101310009581DC01ED91FC9109941F93CF93DF93AC
:10132000182FEB010E941F07882311F083E101C0F1
:1013300080E0E12FF0E0EE0FFF1FE956FD4F019036
:10134000F081E02D0190F081E02D0190F081E02D01
:1013500040815181628173814C835D836E837F8381
:101360004481558166817781488359836A837B8371
:101370004085518562857385488759876A877B8751
:10138000DF91CF911F9108958F929F92AF92BF925C
:10139000CF92DF92EF92FF920F931F93CF93C82FBC
:1013A0008B010E941F07882311F083E101C080E0B8
:1013B000EC2FF0E0EE0FFF1FE956FD4F0190F0819A
:1013C000E02D9685913029F5428553856485758594
:1013D0000190F081E02D0190F081E02DC088D1884E
:1013E000E288F3884C155D056E057F0540F4848026
:1013F0009580A680B780480D591D6A1D7B1D4C192C
:101400005D096E097F09F80140835183628373830C
:1014100001C085E0CF911F910F91FF90EF90DF9079
:10142000CF90BF90AF909F908F9008958F929F9292
:10143000AF92BF92CF92DF92EF92FF920F931F93E2
:10144000CF93DF93D82F4A015B01680179010E9495
:101450001F07882311F0C3E101C0C0E0ED2FF0E0C9
:10146000EE0FFF1FE956FD4F0190F081E02D8685BC
:10147000811130C0A081B1810D90BC91A02D5096FA
:101480004D915D916D917C915397480D591D6A1D49
:101490007B1D14968D919D910D90BC91A02D84176C
:1014A0009507A607B70740F4481B590B6A0B7B0B3F
:1014B00041505109610971094287538764877587D3
:1014C000C682D782E086F18681E08687CF010E94BE
:1014D000CF0401C0C7E08C2FDF91CF911F910F91F6
:1014E000FF90EF90DF90CF90BF90AF909F908F9044
:1014F00008958F929F92AF92BF92CF92DF92EF9218
:10150000FF920F931F93CF93DF93C82F4A015B0184
:10151000680179010E941F07882311F0D3E101C0FF
:10152000D0E0EC2FF0E0EE0FFF1FE956FD4F0190E9
:10153000F081E02D868581110EC082869386A48677
:10154000B586C682D782E086F18681E08687CF01A4
:101550000E94CF0401C0D7E08D2FDF91CF911F9162
:101560000F91FF90EF90DF90CF90BF90AF909F9042
:101570008F9008950F931F93CF93DF93C82F0E94EE
:101580001F07882311F0D3E101C0D0E0EC2FF0E079
:10159000EE0FFF1FE956FD4F00811181F80186858E
:1015A000813031F4C8010E945E05F801168601C041
:1015B000D5E08D2FDF91CF911F910F910895CF939B
:1015C000DF93880F991FFC01EA58FD4F0190F081CD
:1015D000E02D8585882369F0C285D385CF010A96E1
:1015E0000E94F206892B39F08A81882331F08CE041
:1015F00005C08AE003C08DE001C080E0DF91CF919B
:101600000895880F991FFC01E659FD4F8081918153
:10161000DC01ED91FC9109949B01880F991FFC015D
:10162000EA58FD4F60817181DB011696ED91FC91C6
:101630001797C9010994880F991FFC01E659FD4FBE
:1016400080819181DC01ED91FC9160E070E0099571
:1016500080E0089526E040E052EC61E070E083EC29
:1016600093E00E94211161E08DE00E94EA0C62E0AB
:101670008CE00E94EA0C60E08EE00C94EA0CCF93C0
:10168000DF9300D0CDB7DEB7BE016F5F7F4F809193
:101690002303909124030E94F10089819A81892B70
:1016A00051F462EF71E083EC93E00E94170F60E069
:1016B0008DE00E94260D89819A81019739F563E0BA
:1016C00072E083EC93E00E94170F8091AC0390913D
:1016D000AD039C012F5F3F4F3093AD032093AC03CC
:1016E0002530310514F461E004C00497049720F418
:1016F00060E08DE00E94260D8091AC039091AD03D7
:10170000089724F01092AD031092AC0389819A815E
:10171000029709F567E172E083EC93E00E94170FEE
:101720008091AA039091AB0301969093AB038093B1
:10173000AA0380FD02C061E001C060E08DE00E946C
:10174000260D8091AA039091AB03049724F0109288
:10175000AB031092AA0389819A81039751F46BE23B
:1017600072E083EC93E00E94170F61E08DE00E942D
:10177000260D0E94B9000F900F90DF91CF91089530
:10178000EF92FF920F931F93CF93DF9300D0CDB7CB
:10179000DEB78EE00E94100E8C01BE016F5F7F4F9E
:1017A00080912503909126030E94F1008091A80367
:1017B0009091A90308171907E9F09801281B390B24
:1017C000C90137FF03C09195819591099093A703B3
:1017D0008093A6036BE372E083EC93E00E94170F03
:1017E0006091A6037091A7034AE050E083EC93E078
:1017F0000E94BC0FE980FA8031E0E316F10471F138
:101800008091A4039091A503009719F483E090E0E0
:101810001AC0019709F046C01093A9030093A803CA
:101820008091A6039091A7038436910524F4109229
:10183000A3031092A2039C012456310924363105DA
:1018400038F481E090E09093A3038093A2032AC030
:10185000883C91053CF182E090E0F5CF1093A9031C
:101860000093A80362E472E083EC93E00E94170FF8
:101870004AE050E0B80183EC93E00E94BC0FF09284
:10188000A503E092A4038091A8039091A903081BEB
:10189000190B17FF03C01195019511091093A703A8
:1018A0000093A60364E572E083EC93E00E94170FB7
:1018B0006091A2037091A3034AE050E083EC93E0AF
:1018C0000E94BC0F62EA73E080911F039091200395
:1018D0000E94ED000E94B9000F900F90DF91CF9110
:1018E0001F910F91FF90EF9008958EE00E94100ECF
:1018F0008CE00E94550D1092A1031092A003009756
:1019000051F480919E0390919F03019690939F03C1
:1019100080939E0306C0019721F410929F031092BA
:101920009E0380919E0390919F030A9734F081E07B
:1019300090E09093A1038093A00360EA73E080910C
:101940002103909122030E94ED000C94B900809134
:1019500029030E94E900809128030E94E9008091F8
:1019600027030E94E90080E692E00E94891180E04E
:101970000E9495000C94B9008FEC91E00C943A0110
:101980000895833081F028F4813099F08230A1F0FD
:1019900008958730A9F08830B9F08430D1F480916F
:1019A00080008F7D03C0809180008F7780938000BE
:1019B000089584B58F7702C084B58F7D84BD089566
:1019C0008091B0008F7703C08091B0008F7D8093AD
:1019D000B0000895CF93DF9390E0FC01E458FF4FEF
:1019E0002491FC01E057FF4F8491882361F190E03E
:1019F000880F991FFC01E854FF4FC591D491FC0159
:101A0000E255FF4FA591B491611109C09FB7F894B9
:101A10008881209582238883EC912E230BC062302D
:101A200061F49FB7F8948881322F3095832388839F
:101A3000EC912E2B2C939FBF06C08FB7F894E881B2
:101A40002E2B28838FBFDF91CF9108951F93CF93C3
:101A5000DF93282F30E0F901E859FF4F8491F90115
:101A6000E458FF4FD491F901E057FF4FC491CC23C4
:101A7000C1F0162F81110E94C10CEC2FF0E0EE0F87
:101A8000FF1FE255FF4FA591B4919FB7F894111134
:101A900004C08C91D095D82302C0EC91DE2BDC934E
:101AA0009FBFDF91CF911F910895CF93DF93282F90
:101AB00030E0F901E859FF4F8491F901E458FF4FF4
:101AC000D491F901E057FF4FC491CC2391F08111DB
:101AD0000E94C10CEC2FF0E0EE0FFF1FEC55FF4F02
:101AE000A591B491EC91ED2381E090E021F480E0A8
:101AF00002C080E090E0DF91CF9108951F920F9295
:101B00000FB60F9211242F933F934F935F936F93D0
:101B10007F938F939F93AF93BF93EF93FF938091A6
:101B2000BA039091BB03A091BC03B091BD03309167
:101B3000B90323E0230F2D3720F40196A11DB11D19
:101B400005C026E8230F0296A11DB11D2093B903FD
:101B50008093BA039093BB03A093BC03B093BD03DF
:101B60008091BE039091BF03A091C003B091C103C7
:101B70000196A11DB11D8093BE039093BF03A09356
:101B8000C003B093C1030E94BC0CFF91EF91BF91C1
:101B9000AF919F918F917F916F915F914F913F9105
:101BA0002F910F900FBE0F901F90189584B58260F3
:101BB00084BD84B5816084BD85B5826085BD85B5F1
:101BC000816085BDEEE6F0E0808181608083E1E8A0
:101BD000F0E01082808182608083808181608083D8
:101BE000E0E8F0E0808181608083E1EBF0E08081DB
:101BF00084608083E0EBF0E0808181608083EAE7AD
:101C0000F0E0808184608083808182608083808135
:101C1000816080838081806880831092C1000895F4
:101C20008E3008F08E502091EC0190E4299F9001B5
:101C300011248770822B80937C0080917A008064CD
:101C400080937A0080917A0086FDFCCF80917800A5
:101C50002091790090E0922B0895FFCFFFCFCF9392
:101C6000DF93880F990BFC01E353FD4FC081D181B5
:101C7000AC81BD8111978A819B81A80FB91F2D85E9
:101C8000CD010197FD013297223019F421EB30E0AC
:101C900002C02DEC30E02C93DC013C939E818F81BF
:101CA0009083DF018E93CF0107971E928A179B07BF
:101CB000E1F780E8DF0118978C93CF0144971E92DB
:101CC0008A179B07E1F7A881B9817597ED93FC937B
:101CD000DF91CF910895089578940895F894089528
:101CE00078940895F894089508950E94D60D0E945E
:101CF000740E0E94C00C0E942A0B8091C2030E94A5
:101D0000130780E090E00895809132038093C2032E
:101D1000089508951F920F920FB60F9211242F93DA
:101D20003F934F935F936F937F938F939F93AF9363
:101D3000BF93EF93FF93E091ED01F091EE010995D0
:101D4000FF91EF91BF91AF919F918F917F916F9193
:101D50005F914F913F912F910F900FBE0F901F9069
:101D600018951F920F920FB60F9211242F933F9345
:101D70004F935F936F937F938F939F93AF93BF9393
:101D8000EF93FF93E091EF01F091F0010995FF913E
:101D9000EF91BF91AF919F918F917F916F915F91E3
:101DA0004F913F912F910F900FBE0F901F9018955C
:101DB000CF92DF92EF92FF920F931F93CF93DF9317
:101DC0006C017A018B01C0E0D0E0CE15DF0581F017
:101DD000D8016D918D01D601ED91FC910190F081BA
:101DE000E02DC6010995892B11F02196EECF7E01D9
:101DF000C701DF91CF911F910F91FF90EF90DF907E
:101E0000CF9008956115710579F0FB0101900020D4
:101E1000E9F73197AF01461B570BDC01ED91FC91BF
:101E20000280F381E02D099480E090E008950C9405
:101E3000020FDC01ED91FC910190F081E02D0994FD
:101E40006BE673E00C94020F8F929F92AF92BF9259
:101E5000EF92FF920F931F93CF93DF93CDB7DEB72F
:101E6000A1970FB6F894DEBF0FBECDBF7C01FA017B
:101E7000CB0119A2223008F42AE08E010F5D1F4F1A
:101E8000822E912CA12CB12CBF01A50194010E949E
:101E9000B911F901CA01015011096A3014F4605DE9
:101EA00001C0695CD8016C93232B242B252B61F78F
:101EB000B801C7010E94020FA1960FB6F894DEBFC9
:101EC0000FBECDBFDF91CF911F910F91FF90EF908B
:101ED000BF90AF909F908F900895CF92DF92EF9236
:101EE000FF920F931F93CF93DF932115310581F458
:101EF000DC01ED91FC910190F081E02D642FDF91E8
:101F0000CF911F910F91FF90EF90DF90CF900994A8
:101F10002A30310501F577FF1DC06A017B01EC0114
:101F20006DE20E94190F8C0144275527BA014C1904
:101F30005D096E097F092AE0CE010E94240F800FFF
:101F4000911FDF91CF911F910F91FF90EF90DF9044
:101F5000CF9008952AE0DF91CF911F910F91FF90CC
:101F6000EF90DF90CF900C94240F9A01AB01770F84
:101F7000660B770B0C946D0F0F931F93CF93DF932A
:101F8000EC010E94B50F8C01CE010E94200F800F42
:101F9000911FDF91CF911F910F9108951F920F9282
:101FA0000FB60F9211242F938F939F93EF93FF936C
:101FB000E091D303F091D4038081E091D903F091B3
:101FC000DA0382FD12C090818091DC038F5F8F73F2
:101FD0002091DD03821751F0E091DC03F0E0ED5336
:101FE000FC4F958F8093DC0301C08081FF91EF91BE
:101FF0009F918F912F910F900FBE0F901F9018956A
:102000001F920F920FB60F9211242F933F934F936D
:102010005F936F937F938F939F93AF93BF93EF9350
:10202000FF9383EC93E00E949010FF91EF91BF919A
:10203000AF919F918F917F916F915F914F913F9160
:102040002F910F900FBE0F901F901895E3ECF3E0C7
:102050001382128288EE93E0A0E0B0E0848395833F
:10206000A683B7838EE793E09183808385EC90E02D
:102070009587848784EC90E09787868780EC90E052
:10208000918B808B81EC90E0938B828B82EC90E043
:10209000958B848B86EC90E0978B868B118E128EBD
:1020A000138E148E0895FC01918D228D892F90E05E
:1020B000805C9F4F821B91098F7399270895FC01C3
:1020C000918D828D981731F0828DE80FF11D858DED
:1020D00090E008958FEF9FEF0895FC01918D828D20
:1020E000981761F0828DDF01A80FB11D5D968C916C
:1020F000928D9F5F9F73928F90E008958FEF9FEF77
:102100000895FC01538D448D252F30E0842F90E0FD
:10211000821B930B541710F0CF96089501970895E2
:10212000FC01848DDF01A80FB11DA35ABF4F2C9174
:10213000848D90E001968F739927848FA689B78943
:102140002C93A089B1898C91837080648C93938D3A
:10215000848D981306C00288F389E02D80818F7DDD
:1021600080830895EF92FF920F931F93CF93DF9395
:10217000EC0181E0888F9B8D8C8D981305C0E889D8
:10218000F989808185FD26C0F62E0B8D10E00F5F4A
:102190001F4F0F731127E02E8C8DE8120CC00FB665
:1021A00007FCFACFE889F989808185FFF5CFCE0158
:1021B0000E949010F1CF8B8DFE01E80FF11DE35AC4
:1021C000FF4FF0829FB7F8940B8FEA89FB898081DB
:1021D00080620AC09FB7F894EE89FF896083E8891E
:1021E000F98980818370806480839FBF81E090E063
:1021F000DF91CF911F910F91FF90EF900895CF93B2
:10220000DF93EC01888D8823C9F0EA89FB898081FE
:1022100085FD05C0A889B9898C9186FD0FC00FB6D0
:1022200007FCF5CF808185FFF2CFA889B9898C9111
:1022300085FFEDCFCE010E949010E7CFDF91CF91C7
:102240000895CF92DF92EF92FF921F93CF93DF9387
:10225000EC016A017B01122FE889F98982E0808311
:102260004115514E61057105B1F060E079E08DE3F3
:1022700090E0A70196010E94B911DA01C901019706
:10228000A109B109B695A795979587959C01211548
:1022900080E13807A8F0E889F989108260E874E8DD
:1022A0008EE190E0A70196010E94B911DA01C901FF
:1022B0000197A109B109B695A795979587959C01B6
:1022C000EC85FD853083EE85FF852083188EEC89B3
:1022D000FD891083EA89FB89808180618083EA8996
:1022E000FB89808188608083EA89FB89808180689E
:1022F0008083EA89FB8980818F7D8083DF91CF9104
:102300001F91FF90EF90DF90CF900895F8940C9478
:10231000E1110F931F93CF93DF93E091CC08F091DD
:10232000CD08238121FF1BC08C01D0E0C0E0F80163
:1023300081918F016091CC087091CD08DB011896D6
:10234000ED91FC911997882331F00995892B79F348
:10235000DFEFCFEFECCF8AE00995892B19F08FEFF3
:102360009FEF02C08D2F9C2FDF91CF911F910F9176
:102370000895A1E21A2EAA1BBB1BFD010DC0AA1FC6
:10238000BB1FEE1FFF1FA217B307E407F50720F0DE
:10239000A21BB30BE40BF50B661F771F881F991F59
:1023A0001A9469F760957095809590959B01AC01A2
:1023B000BD01CF010895EE0FFF1F0590F491E02DB0
:0623C0000994F894FFCF20
:1023C6000000000000000000000000000000000007
:1023D60000000000000000000000000000000000F7
:1023E60000000000000000000000000000000000E7
:1023F60000000000000000000000000000000000D7
:1024060000000000000000000000000000000000C6
:1024160000000000000000000000000000000000B6
:102426000000000000000000FF00000F030000B4E1
:1024360003FFFFFFFFFFFFFFFF0000850685069FE6
:10244600020000000000000000409C000002A802FC
:10245600000000007D0000006400000002B10200E0
:10246600000000F40100006400000002BA0200004F
:102476000000640000006400000002000000040088
:10248600000000030000000002000000000100013F
:10249600000000FFFF000001000000000000000037
:1024A600000000000000000500FF000001890E8901
:1024B6000EFF5461736B20563A206C6564206F667C
:1024C600660A005461736B20563A20736C6F77204E
:1024D600626C696E6B0A005461736B20563A206613
:1024E60061737420626C696E6B0A005461736B20B1
:1024F600563A206C6564206F6E0A00582069733A5C
:10250600200053656E736F722076616C7565206965
:10251600733A20004D5F6D6573736167653A2000FD
:1025260053687574646F776E0D0072026E028706CB
:102536007A0287068A028A027A0287020000BE06AB
:1025460062067B01C607025E060000000000BE06AA
:1025560062067D01C40702AC019D018E017F01CF99
:10256600018409A5025E0603CF018409AE025E0658
:1025760000CF018409B7025E0601CF018409C002BB
:102586005E0602CA01C501C001BB01B4030103F323
:1025960002E502D7020F036205C2050001A70C007F
:1025A60000030401006005C8070001750C00000265
:1025B600030100C20760040001C00B000001020114
:1025C60000C808C20600013F0B00000001010070B0
:1025D60005720550002D0E000004000100E7010100
:1025E60000000001000000020100010101010000DD
:1025F6000000001608E407ED07C607B8046307A540
:10260600048C07A4085A0911078D095808C40981C2
:1026160008160ACC08790A0907BA0A0407010BDF6B
:102626000A0C0B21091B0BEB0868080D0A006E61EA
:102636006E00696E66006F76660000000000B210DC
:0C264600D80E8110FF1053106D105F10B3
:00000001FF
