:100000000C9436000C94540D0C947B0D0C945E00F3
:100010000C945E000C945E000C945E000C945E00E8
:100020000C945E000C945E000C945E000C945E00D8
:100030000C945E000C945E000C945E000C945E00C8
:100040000C94590C0C945E000C94B70E0C94E90EB1
:100050000C945E000C945E000C945E000C945E00A8
:100060000C945E000C945E004E0D0F0F11241FBE09
:10007000CFEFD8E0DEBFCDBF13E0A0E0B1E0E4E613
:10008000F1E202C005900D92AA3EB107D9F727E030
:10009000AAEEB3E001C01D92A639B207E1F710E065
:1000A000C6E3D0E004C02197FE010E949B10C43338
:1000B000D107C9F70E943F0D0C946F100C940000FB
:1000C000E4E10E9415010895E2E10E9415010895FE
:1000D000EAE00E9415010895E1E00E9415010895EB
:1000E000E3E00E9415010895E7E00E9415010895DC
:1000F000E5E00E9415010895E0E00E9415010895D1
:10010000E2E00E9415010895E4E00E9415010895BF
:10011000ECE00E9415010895EBE10E94150108959D
:10012000EEE00E9415010895E8E00E94150108958F
:10013000E0E10E9415010895EAE10E941501089589
:10014000E6E00E9415010895E8E10E941501089576
:10015000E9E00E9415010895EBE00E941501089561
:10016000EDE00E9415010895EFE00E941501089549
:10017000E1E10E9415010895E3E10E94150108954F
:10018000E5E10E9415010895E7E10E941501089537
:10019000E9E10E9415010895E6E10E941501089524
:1001A00021968A929A92AA92BA92CA92DA92EA9284
:1001B000FA920A931A932197E0916901F0916A01EA
:1001C0000080F181E02DC083D1830895C0916B013F
:1001D000D0916C01E881F981C081D181219619917A
:1001E0000991F990E990D990C990B990A990999006
:1001F0008990219708952F903F90E7E6F1E0CDB7E1
:10020000DEB7EDBFFEBF3F922F9208952F903F9033
:10021000CDBFDEBF3F922F920895E0E80E94150106
:100220000895E0E40E94150108952F923F924F92A5
:100230005F926F927F922FB62F92CF93DF937E2E95
:10024000F894E0910001EF5FE0930001E13011F4D8
:100250000E94FB00E0E0E0937901E72DE07849F0AF
:100260000E946905F0917A01F17071F00E941C04FE
:100270000BC0E72DEC3140F4EE0FF0E0EF56FC4FF1
:100280000190F081E02D0995F0917901EF2FE17057
:1002900059F0F27011F00E94D0008F938F2F0E94BE
:1002A00064038F910E94E600209100012150209369
:1002B0000001222311F40E940601DF91CF912F90BB
:1002C0002FBE7F906F905F904F903F902F9008953A
:1002D000CF92DF92EF92FF920F931F93DC01EC918C
:1002E000DB012C918E2F8170C82ED12CE12CF12CAA
:1002F0008E2F8F7090E0A0E0B0E0B695A79597950F
:100300008795DC01A450BC4F8C91C81AD108E10834
:10031000F108EE70422F417050E060E070E0822FF3
:100320008F7090E0A0E0B0E0B695A795979587957F
:10033000DC01A450BC4F8C91481B51096109710923
:10034000822F8E7097018601017011272227332793
:100350000E2B4170552766277727482B81E090E0C8
:10036000041715072607370710F080E090E01F916B
:100370000F91FF90EF90DF90CF9008958F929F9212
:10038000AF92BF92EF92FF920F931F93CF93DF93A1
:100390007C014A015B01B694A794979487944230FC
:1003A000510561057105E0F0440F551F8701040FE9
:1003B000151FE401CC0FDD1FCE0DDF1DB801CE01EE
:1003C0000E946801892B61F0F80190818181288168
:1003D00039813183208398838983B501A401DBCFE0
:1003E000DF91CF911F910F91FF90EF90BF90AF9051
:1003F0009F908F9008954F925F926F927F928F920D
:100400009F92AF92BF92CF92DF92EF92FF920F93A3
:100410001F93CF93DF9300D000D000D0CDB7DEB7CD
:100420008C016A017B01DC018C91282F30E040E0D7
:1004300050E029833A834B835C8346015701880C43
:10044000991CAA1CBB1C29813A814B815C8128150F
:1004500039054A055B0508F442C0240135013FEF28
:10046000431A530A630A730A89819A81AB81BC815A
:1004700084159505A605B70580F0B201660F771FB4
:10048000600F711FC401880F991F800F911F0E9478
:100490006801892B11F0530142013401660C771C6D
:1004A000600E711ECC0CDD1CD801AC0DBD1DBE83D1
:1004B000AD83B301CD010E946801892B81F0ED81EC
:1004C000FE8190818181D3012D913C9111973183DF
:1004D00020839C9311968C9375016401AECF269670
:1004E0000FB6F894DEBF0FBECDBFDF91CF911F9145
:1004F0000F91FF90EF90DF90CF90BF90AF909F90C3
:100500008F907F906F905F904F900895E8EBF5E0AB
:1005100040814F5F408350E060E070E0E82FEE0FD5
:10052000FF0BED5CFC4F0190F081E02D238530E066
:10053000F901E450FC4F908191509083FA01EE0F45
:10054000FF1FE854FA4F220F331F9170292B20838D
:10055000818388EB95E00C94BE01E8EBF5E04081E7
:100560004F5F408350E060E070E0E82FEE0FFF0B3C
:10057000E75DFC4F0190F081E02D9381FA01EE0FD1
:10058000FF1FE854FA4F9083818388EB95E00C9429
:10059000BE01CF93DF93E8EBF5E080819FEF980FEA
:1005A0009083D281C38190E0880F991FDC01A85409
:1005B000BA4F8D919C919383828341E050E060E03B
:1005C00070E0CF010E94FB018D2F9C2FDF91CF9116
:1005D00008958091710190917201A0917301B09181
:1005E00074018F3F2FEF9207A207B20731F00497F3
:1005F000A105B10524F481E0089580E0089582E02A
:100600000895880F990BFC01ED5CFC4F0190F0817F
:10061000E02D0084F185E02D3097E9F02281211151
:100620001AC021E02283DC01A75DBC4F0D90BC9174
:10063000A02D13968C9113978183808190E0FC010B
:10064000E450FC4F208121502083880F991F217096
:10065000822B13968C930895880F990BFC01ED5C07
:10066000FC4F0190F081E02D0084F185E02D309762
:1006700061F02281213049F412822181FC01E75D81
:10068000FC4F0190F081E02D238308958091750146
:1006900090917601A0917701B0917801409171011C
:1006A000509172016091730170917401481759075C
:1006B0006A077B0741F0E0916F01F091700121E042
:1006C00024830C94AD020895CF93DF93882391F097
:1006D000C0916901D0916A01E0916D01F0916E01C4
:1006E0008481833049F081E08483809171010E948C
:1006F000AD0202C0C0E0D0E0E0916F01F091700166
:10070000F0936E01E0936D0180916B0190916C010B
:1007100090936A018093690180917501309176010F
:10072000209177019091780180937101309372014B
:10073000209373019093740192E094830E940103CB
:10074000CE01DF91CF910895809171010E942C0319
:10075000E0916D01F0916E018281882319F085E0AE
:100760008483089514820895CF93DF93282F220F56
:10077000330BF901E75DFC4FC081D1819A81F9010A
:10078000ED5CFC4F0190F081E02D2485921770F410
:10079000911105C095E09C8391E090937A010E94AD
:1007A00086028A818F5F8A8380E001C084E0DF91C6
:1007B000CF910895E82FEE0FFF0BE75DFC4F0190FE
:1007C000F081E02D118210820C94F90C1F93CF93CD
:1007D000DF930E94C902182F892F492F092E000C80
:1007E000550B660B770B4093750150937601609320
:1007F000770170937801292F220F330BF901E75D00
:10080000FC4FC081D181D0937001C0936F01F90179
:10081000ED5CFC4F2081318130936C0120936B01A2
:100820009C81953019F40E94DA031B8310927A019F
:10083000DF91CF911F910895E0917501F0917601BC
:10084000EE0FFF1FE75DFC4F0190F081E02D9091CE
:10085000BA058381891730F40E9446030E94E6039B
:1008600083E001C080E080937901089581E0809366
:1008700079010C94E603EF92FF920F931F93CF93AD
:10088000DF93C1E001C0CC0F8A95EAF784E00E94B3
:10089000B4030CE813E0D0E0F80181918F018C23C0
:1008A00019F08D2F0E94B403DF5FD430A9F709E857
:1008B00013E088E0E82E83E0F82ED1E0F801819182
:1008C0008F018C2339F0F70180819181FC01D6875B
:1008D0000E94A204F2E0EF0EF11C83E00C3818072E
:1008E00069F7DF91CF911F910F91FF90EF900895DD
:1008F0000E94F20681110E941307E0916D01F091B0
:100900006E0180819181892B21F0809171010E947B
:10091000DA080C943B080E94F20681110E9413072A
:10092000E0916D01F0916E0180819181892B21F020
:10093000809171010E94DA080C94230881E0809371
:10094000EA030895AF92BF92CF92DF92EF92FF92A7
:100950000F931F93CF93DF93FC01A081B181AD90E2
:10096000BC90E501AC89BD89109739F0428553856B
:100970006485758530E020E017C0D50155969C93BD
:100980008E93549757969C938E9356971582148204
:10099000138212825BC012968D919C9113973A2F0D
:1009A0002B2F009779F0DC011A96CD90DD90ED9019
:1009B000FC901D974C155D056E057F0560F7CD0118
:1009C000A32FB22F93838283B583A483009719F05A
:1009D000EC01FD83EC83109729F01396FC93EE93C2
:1009E000129705C0D5015596FC93EE935497E501F7
:1009F000AE89BF891A968D919D910D90BC91A02DC5
:100A0000088919892A893B8980179107A207B307AA
:100A100080F4041715072607370728F048175907E9
:100A20006A077B0798F4D5015796FC93EE93569787
:100A30000DC0041715072607370740F44817590754
:100A40006A077B0718F4E501FF8BEE8BDF91CF91EE
:100A50001F910F91FF90EF90DF90CF90BF90AF90DC
:100A60000895CF93DF93DC01ED91FC9111970190F4
:100A7000F081E02D848995891296CD91DC911397B0
:100A8000A817B90711F4D58BC48B86899789A81745
:100A9000B90711F4D78BC68B209731F014968D913E
:100AA0009C9115979D838C8314960D90BC91A02DDD
:100AB000109721F01396DC93CE931297868997892D
:100AC000892B21F484899589978B868BDF91CF912F
:100AD0000895EF92FF920F931F93CF93DF93FC0142
:100AE0008091EA03882309F4B5C084859585A6859D
:100AF000B7850196A11DB11D84879587A687B78705
:100B0000408151816281738184179507A607B707D9
:100B100009F0A0C040895189628973894F5F5F4F96
:100B20006F4F7F4F84819581A681B7818417950788
:100B3000A607B70718F440E050E0BA01408B518B8C
:100B4000628B738B1486158616861786C689D7899D
:100B5000209709F47FC08A859B85AC85BD854817A1
:100B600059076A077B0709F075C0CE01DC011296B0
:100B7000ED90FC901397E114F10471F0D7011A96EF
:100B80000D911D912D913C911D97401751076207C2
:100B9000730711F4C701EACF2C813D81211531057E
:100BA00029F0D9011396FC92EE921297E114F10408
:100BB00029F0D70115963C932E93149724893589F3
:100BC000C217D30711F4F58AE48AE114F10419F08D
:100BD000F78AE68A04C024893589378B268B8F01F2
:100BE000FC0113821282EA80FB80E881F981028095
:100BF000F381E02DCE0109954E815F81688579856D
:100C0000411551056105710509F18A859B85AC8502
:100C1000BD85840F951FA61FB71FF801448155811C
:100C200066817781481759076A077B0738F4841B68
:100C3000950BA60BB70B0197A109B1098A879B8772
:100C4000AC87BD87CE010E94A20401C01E86E701C9
:100C5000209749F6DF91CF911F910F91FF90EF9070
:100C60000895FC0182810C94B403FB014485A285A4
:100C7000B385FC01042E000C550B9A012E1B3F0B73
:100C8000280F391F121613061CF42D912193F5CF4E
:100C900080E00895DA01109749F0ED91FC911197E9
:100CA000309721F0AB01BC01CD01099481E008959A
:100CB00081E00895EF92FF920F931F93CF937B01F2
:100CC000DC0112960D911C91139701151105F1F09D
:100CD000D8011496ED91FC911597B701C8010995BB
:100CE000C82F81110AC0F80180819181009741F0DD
:100CF000DC01ED91FC91099503C08E3009F4C0E050
:100D0000F80102811381CC2301F301C0C0E080E02F
:100D10000E94BF068C2FCF911F910F91FF90EF90F3
:100D20000895EF92FF920F931F93CF93DF938C015F
:100D30007B01FC01C285D38540855185CE010E948F
:100D40004A068823A1F0F8012485F701DE01022E6E
:100D5000000C330BC9018A1B9B0B8C0F9D1F1816AF
:100D600019061CF481918D93F5CF80E001C08EE0CF
:100D7000DF91CF911F910F91FF90EF900895809197
:100D80007A0181110C941C040895DC01ED91FC9111
:100D900011972081222341F0218114968D919C91FD
:100DA0001597820F911D089580E090E008950E94AC
:100DB000F206809168010895809368010E943B04C7
:100DC0000E949E040C9436040C94F80CCF93C82F08
:100DD0000E94E902811102C00E94350D8C2FCF9133
:100DE0000C9464008091F7038130D9F08091EF0377
:100DF0009091F003A091F103B091F203892B8A2B1B
:100E00008B2B79F481E04091F3035091F4036091CE
:100E1000F5037091F603452B462B472B19F480E020
:100E2000089581E008951092F7031092F303109251
:100E3000F4031092F5031092F6031092EF03109250
:100E4000F0031092F1031092F2038091EB03909162
:100E5000EC03A091ED03B091EE038093F80390931F
:100E6000F903A093FA03B093FB0308950E94380D91
:100E70008091F8039091F903A091FA03B091FB03DC
:100E80000196A11DB11D8093F8039093F903A093DF
:100E9000FA03B093FB038091F3039091F403A091C4
:100EA000F503B091F6030196A11DB11D8093F303E4
:100EB0009093F403A093F503B093F6030895809103
:100EC000F3039091F403A091F503B091F60300971A
:100ED000A105B10569F14091F8035091F9036091C2
:100EE000FA037091FB034150510961097109409364
:100EF000F8035093F9036093FA037093FB0301978F
:100F0000A109B1098093F3039093F403A093F5032F
:100F1000B093F6038091F8039091F903A091FA033E
:100F2000B091FB03892B8A2B8B2B11F40C94360D7B
:100F300008958091F3039091F403A091F503B0918B
:100F4000F603892B8A2B8B2B89F48091EF039091E8
:100F5000F003A091F103B091F203892B8A2B8B2B24
:100F600029F40E94380D81E08093F7030895809161
:100F7000F703882321F01092F7030C94360D08959F
:100F80000E943C0D8091F8039091F903A091FA031F
:100F9000B091FB030196A11DB11D8093F8039093BE
:100FA000F903A093FA03B093FB038091EF039091B0
:100FB000F003A091F103B091F2030196A11DB11DC0
:100FC0008093EF039093F003A093F103B093F203A7
:100FD00008958091EF039091F003A091F103B091F7
:100FE000F2030097A105B10569F14091F803509112
:100FF000F9036091FA037091FB03415051096109B3
:1010000071094093F8035093F9036093FA037093C6
:10101000FB030197A109B1098093EF039093F003BB
:10102000A093F103B093F2038091F8039091F90338
:10103000A091FA03B091FB03892B8A2B8B2B11F41F
:101040000C943A0D08950E94F206882311F083E172
:10105000089580E00895CF93C82F0E94F2068C2F48
:101060000E94B403C82F80917A0181110E941C0450
:101070008C2FCF910895CF930E94F206882311F010
:10108000C3E101C0C0E0E0916D01F0916E01828189
:10109000815082830E94A40381E0809379010E94A1
:1010A000E6038C2FCF910895CF93C82F0E94F206AC
:1010B000E0916D01F0916E018281815082838C2FCD
:1010C0000E94B403C82F811108C00E94A40381E0CC
:1010D000809379010E94E60307C0E0916D01F091D1
:1010E0006E0182818F5F82838C2FCF910895CF9381
:1010F0000E94F206882311F0C3E101C0C0E0809194
:1011000071010E942C030E941C0480917101909136
:101110007201A0917301B0917401409175015091D9
:101120007601609177017091780184179507A60781
:10113000B70711F40E9401038C2FCF910895CF932C
:10114000DF93EC010E94F206882311F083E101C0D5
:1011500080E0409171015091720160917301709132
:101160007401443051056105710514F4488303C0CE
:101170009091DF019883DF91CF9108950F931F9392
:10118000CF93C82F8B010E94F206882311F083E1D0
:1011900001C080E0EC2FEE0FFF0BE75DFC4F0190EC
:1011A000F081E02D94819370F8019083CF911F918D
:1011B0000F910895880F990BFC01E75DFC4FA0810A
:1011C000B181ED91FC911197309769F01D921C92BD
:1011D0002091DF0193818481228314821382E92F7D
:1011E000F82F3097B9F70895CF93C82F0E94F206D1
:1011F000882311F083E101C080E0EC2FF0E0EE0FD6
:10120000FF1FED57FC4FA081B181909171011296A3
:101210009C931297E0916D01F0916E0120813181D4
:1012200014963C932E931397B183A08393811196C8
:101230009C9311972C9193819695921760F430E0CE
:10124000D901A450BC4F9C9191509C93220F331F05
:101250009170292B2383CF910895CF93DF93C82FCB
:101260000E94F206882311F0D3E101C0D0E0EC2FF8
:10127000F0E0EE0FFF1FED57FC4F0190F081E02DE5
:10128000A0916D01B0916E01818113968C9313979B
:10129000838194818D939C93148213828091DF01CA
:1012A00082830E941C048D2FDF91CF910895DC0171
:1012B000ED91FC9184819581DC01ED91FC91099483
:1012C0001F93CF93DF93182FEB010E94F206882320
:1012D00011F083E101C080E0E12FF0E0EE0FFF1F8D
:1012E000E85FFC4F0190F081E02D0190F081E02D4E
:1012F0000190F081E02D40815181628173814C83A6
:101300005D836E837F8344815581668177814883C5
:1013100059836A837B8340855185628573854887BD
:1013200059876A877B87DF91CF911F9108958F92AC
:101330009F92AF92BF92CF92DF92EF92FF920F9364
:101340001F93CF93C82F8B010E94F206882311F0C0
:1013500083E101C080E0EC2FF0E0EE0FFF1FE85FBB
:10136000FC4F0190F081E02D9685913029F5428562
:101370005385648575850190F081E02D0190F081A1
:10138000E02DC088D188E288F3884C155D056E0594
:101390007F0540F484809580A680B780480D591D54
:1013A0006A1D7B1D4C195D096E097F09F801408398
:1013B00051836283738301C085E0CF911F910F91A8
:1013C000FF90EF90DF90CF90BF90AF909F908F9065
:1013D00008958F929F92AF92BF92CF92DF92EF9239
:1013E000FF920F931F93CF93DF93D82F4A015B0196
:1013F000680179010E94F206882311F0C3E101C05F
:10140000C0E0ED2FF0E0EE0FFF1FE85FFC4F019012
:10141000F081E02D8685811130C0A081B1810D90D1
:10142000BC91A02D50964D915D916D917C915397FB
:10143000480D591D6A1D7B1D14968D919D910D902F
:10144000BC91A02D84179507A607B70740F4481B49
:10145000590B6A0B7B0B4150510961097109428795
:10146000538764877587C682D782E086F18681E0DC
:101470008687CF010E94A20401C0C7E08C2FDF91B4
:10148000CF911F910F91FF90EF90DF90CF90BF9081
:10149000AF909F908F9008958F929F92AF92BF923E
:1014A000CF92DF92EF92FF920F931F93CF93DF9330
:1014B000C82F4A015B01680179010E94F206882366
:1014C00011F0D3E101C0D0E0EC2FF0E0EE0FFF1FF0
:1014D000E85FFC4F0190F081E02D868581110EC000
:1014E00082869386A486B586C682D782E086F186F8
:1014F00081E08687CF010E94A20401C0D7E08D2F32
:10150000DF91CF911F910F91FF90EF90DF90CF90DF
:10151000BF90AF909F908F9008950F931F93CF939C
:10152000DF93C82F0E94F206882311F0D3E101C097
:10153000D0E0EC2FF0E0EE0FFF1FE85FFC4F0081E2
:101540001181F8018685813031F4C8010E9431058E
:10155000F801168601C0D5E08D2FDF91CF911F9144
:101560000F910895CF93DF93880F991FFC01E750E7
:10157000FD4F0190F081E02D8585882369F0C285BB
:10158000D385CF010A960E94C506892B39F08A813E
:10159000882331F08CE005C08AE003C08DE001C0F3
:1015A00080E0DF91CF910895880F991FFC01ED50E5
:1015B000FD4F80819181DC01ED91FC9109949B01AB
:1015C000880F991FFC01E750FD4F60817181DB019D
:1015D0001696ED91FC911797C9010994880F991FF0
:1015E000FC01ED50FD4F80819181DC01ED91FC917A
:1015F00060E070E0099580E0089526E040E052EC5C
:1016000061E070E083E194E00C940A108F929F9265
:10161000AF92BF92CF92DF92EF92FF9228EF31E02C
:10162000DC010E9494104B015C01C12CD12C76018D
:10163000C814D904EA04FB0441F00E94B10C8FEFF6
:10164000C81AD80AE80AF80AF3CFFF90EF90DF90A3
:10165000CF90BF90AF909F908F900895CF93DF93DE
:1016600000D0CDB7DEB71A82198260EE71E083E157
:1016700094E00E94E10DBE016F5F7F4F8091850372
:10168000909186030E94C0000F900F90DF91CF9140
:1016900008950F931F93CF93DF9300D0CDB7DEB79C
:1016A00067EF71E083E194E00E94E10D0E94B10CCC
:1016B000AB01BC012AE030E083E194E00E94440EDB
:1016C0000091870310918803BE016F5F7F4FC801AF
:1016D0000E94C40089819A810197B1F381E090E072
:1016E0009A8389830091850310918603BE016F5F01
:1016F0007F4FC8010E94C00069817A814AE050E0B2
:1017000083E194E00E94A50E63E172E083E194E03E
:101710000E94E10D0E94B10CAB01BC012AE030E057
:1017200083E194E00E94440E8CE291E00E94060B5B
:101730001A821982BE016F5F7F4FC8010E94C000EC
:1017400060E372E083E194E00E94E10D0E94B10C3D
:10175000AB01BC012AE030E083E194E00E94440E3A
:101760000E948C000F900F90DF91CF911F910F91ED
:10177000089560E672E083E194E00E94E10D0E942A
:10178000B10CAB01BC012AE030E083E194E00E949F
:10179000440E88E592E00E94060B6CE772E083E15C
:1017A00094E00E94E10D0E94B10CAB01BC012AE063
:1017B00030E083E194E00E94440E0C948C000F937F
:1017C0001F93CF93DF9300D0CDB7DEB762E972E00D
:1017D00083E194E00E94E10D0E94B10CAB01BC01D9
:1017E0002AE030E083E194E00E94440E88EC90E02F
:1017F0000E94060B009187031091880389819A81CA
:10180000019739F4BE016F5F7F4FC8010E94C40089
:10181000F5CF81E090E09A83898300918503109150
:101820008603BE016F5F7F4FC8010E94C0006981BF
:101830007A814AE050E083E194E00E94A50E6EEACE
:1018400072E083E194E00E94E10D0E94B10CAB01D3
:10185000BC012AE030E083E194E00E94440E8CE277
:1018600091E00E94060B1A821982BE016F5F7F4FC2
:10187000C8010E94C0006BEC72E083E194E00E941A
:10188000E10D0E94B10CAB01BC012AE030E083E124
:1018900094E00E94440E0E948C000F900F90DF9104
:1018A000CF911F910F9108958EEB91E00C940D0153
:1018B00008951F920F920FB60F9211242F933F930A
:1018C0004F935F936F937F938F939F93AF93BF9348
:1018D000EF93FF9380910A0490910B04A0910C0464
:1018E000B0910D043091090423E0230F2D3720F42B
:1018F0000196A11DB11D05C026E8230F0296A11D6A
:10190000B11D2093090480930A0490930B04A093C3
:101910000C04B0930D0480910E0490910F04A091DB
:101920001004B09111040196A11DB11D80930E0405
:1019300090930F04A0931004B09311040E94540CD0
:10194000FF91EF91BF91AF919F918F917F916F9197
:101950005F914F913F912F910F900FBE0F901F906D
:1019600018952FB7F89460910A0470910B04809138
:101970000C0490910D042FBF089584B5826084BD3E
:1019800084B5816084BD85B5826085BD85B5816083
:1019900085BDEEE6F0E0808181608083E1E8F0E0E3
:1019A0001082808182608083808181608083E0E812
:1019B000F0E0808181608083E1EBF0E080818460F1
:1019C0008083E0EBF0E0808181608083EAE7F0E0F3
:1019D0008081846080838081826080838081816057
:1019E00080838081806880831092C1000895FFCF3A
:1019F000FFCFCF93DF93880F990BFC01ED5CFC4F79
:101A0000C081D181AC81BD8111978A819B81A80F52
:101A1000B91F2D85CD010197FD013297223019F4B0
:101A200024E830E002C020EA30E02C93DC013C9353
:101A30009E818F819083DF018E93CF0107971E9245
:101A40008A179B07E1F780E8DF0118978C93CF0195
:101A500044971E928A179B07E1F7A881B981759771
:101A6000ED93FC93DF91CF910895089578940895B4
:101A7000F894089578940895F894089508950E942C
:101A8000BD0C0E943E0D0E94580C0E94FD0A8091E0
:101A900012040E94E60680E090E008958091900391
:101AA00080931204089508951F920F920FB60F921B
:101AB00011242F933F934F935F936F937F938F9353
:101AC0009F93AF93BF93EF93FF93E091DB01F0916E
:101AD000DC010995FF91EF91BF91AF919F918F919B
:101AE0007F916F915F914F913F912F910F900FBE1A
:101AF0000F901F9018951F920F920FB60F921124FE
:101B00002F933F934F935F936F937F938F939F9305
:101B1000AF93BF93EF93FF93E091DD01F091DE016E
:101B20000995FF91EF91BF91AF919F918F917F9117
:101B30006F915F914F913F912F910F900FBE0F903A
:101B40001F901895CF92DF92EF92FF920F931F9301
:101B5000CF93DF936C017A018B01C0E0D0E0CE150A
:101B6000DF0581F0D8016D918D01D601ED91FC91D9
:101B70000190F081E02DC6010995892B11F0219685
:101B8000EECF7E01C701DF91CF911F910F91FF90A2
:101B9000EF90DF90CF9008956115710579F0FB010A
:101BA00001900020E9F73197AF01461B570BDC018C
:101BB000ED91FC910280F381E02D099480E090E0AA
:101BC00008950C94CC0DDC01ED91FC910190F08115
:101BD000E02D099469EC73E00C94CC0D8F929F92E8
:101BE000AF92BF92EF92FF920F931F93CF93DF9329
:101BF000CDB7DEB7A1970FB6F894DEBF0FBECDBF4D
:101C00007C01FA01CB0119A2223008F42AE08E01EE
:101C10000F5D1F4F822E912CA12CB12CBF01A5016D
:101C200094010E947210F901CA01015011096A3031
:101C300014F4605D01C0695CD8016C93232B242BE4
:101C4000252B61F7B801C7010E94CC0DA1960FB6F4
:101C5000F894DEBF0FBECDBFDF91CF911F910F91E2
:101C6000FF90EF90BF90AF909F908F9008952115B7
:101C7000310541F4DC01ED91FC910190F081E02D02
:101C8000642F09940C94EE0D0F931F93CF93DF9361
:101C9000EC010E94370E8C01CE010E94EA0D800FEC
:101CA000911FDF91CF911F910F910895CF92DF92F5
:101CB000EF92FF920F931F93CF93DF93211531057E
:101CC00081F4DC01ED91FC910190F081E02D642F15
:101CD000DF91CF911F910F91FF90EF90DF90CF9008
:101CE00009942A30310501F577FF1DC06A017B0197
:101CF000EC016DE20E94E30D8C0144275527BA01E7
:101D00004C195D096E097F092AE0CE010E94EE0D93
:101D1000800F911FDF91CF911F910F91FF90EF9056
:101D2000DF90CF9008952AE0DF91CF911F910F911E
:101D3000FF90EF90DF90CF900C94EE0D9A01AB01E5
:101D4000770F660B770B0C94560E0F931F93CF9360
:101D5000DF93EC010E949E0E8C01CE010E94EA0DE1
:101D6000800F911FDF91CF911F910F9108951F92C6
:101D70000F920FB60F9211242F938F939F93EF938F
:101D8000FF93E0912304F09124048081E0912904E1
:101D9000F0912A0482FD12C0908180912C048F5F03
:101DA0008F7320912D04821751F0E0912C04F0E004
:101DB000ED5EFB4F958F80932C0401C08081FF91D5
:101DC000EF919F918F912F910F900FBE0F901F90C9
:101DD00018951F920F920FB60F9211242F933F93D5
:101DE0004F935F936F937F938F939F93AF93BF9323
:101DF000EF93FF9383E194E00E94790FFF91EF91BD
:101E0000BF91AF919F918F917F916F915F914F9112
:101E10003F912F910F900FBE0F901F901895E3E107
:101E2000F4E01382128288EE93E0A0E0B0E08483B5
:101E30009583A683B7838CED93E09183808385ECB3
:101E400090E09587848784EC90E09787868780EC84
:101E500090E0918B808B81EC90E0938B828B82EC75
:101E600090E0958B848B86EC90E0978B868B118E1F
:101E7000128E138E148E0895FC01918D228D892F60
:101E800090E0805C9F4F821B91098F739927089582
:101E9000FC01918D828D981731F0828DE80FF11D34
:101EA000858D90E008958FEF9FEF0895FC01918D4F
:101EB000828D981761F0828DDF01A80FB11D5D96AC
:101EC0008C91928D9F5F9F73928F90E008958FEF1A
:101ED0009FEF0895FC01538D448D252F30E0842F12
:101EE00090E0821B930B541710F0CF960895019742
:101EF0000895FC01848DDF01A80FB11DA35ABF4FC7
:101F00002C91848D90E001968F739927848FA689F8
:101F1000B7892C93A089B1898C91837080648C934C
:101F2000938D848D981306C00288F389E02D8081FB
:101F30008F7D80830895EF92FF920F931F93CF932D
:101F4000DF93EC0181E0888F9B8D8C8D981305C009
:101F5000E889F989808185FD26C0F62E0B8D10E079
:101F60000F5F1F4F0F731127E02E8C8DE8120CC0EE
:101F70000FB607FCFACFE889F989808185FFF5CF94
:101F8000CE010E94790FF1CF8B8DFE01E80FF11D7C
:101F9000E35AFF4FF0829FB7F8940B8FEA89FB89D1
:101FA000808180620AC09FB7F894EE89FF896083C0
:101FB000E889F98980818370806480839FBF81E094
:101FC00090E0DF91CF911F910F91FF90EF900895D6
:101FD000CF93DF93EC01888D8823C9F0EA89FB89D0
:101FE000808185FD05C0A889B9898C9186FD0FC0C7
:101FF0000FB607FCF5CF808185FFF2CFA889B9899C
:102000008C9185FFEDCFCE010E94790FE7CFDF9154
:10201000CF910895CF92DF92EF92FF921F93CF93CB
:10202000DF93EC016A017B01122FE889F98982E0D4
:1020300080834115514E61057105B1F060E079E092
:102040008DE390E0A70196010E947210DA01C901A8
:102050000197A109B109B695A795979587959C0118
:10206000211580E13807A8F0E889F989108260E835
:1020700074E88EE190E0A70196010E947210DA01E7
:10208000C9010197A109B109B695A79597958795BB
:102090009C01EC85FD853083EE85FF852083188EBD
:1020A000EC89FD891083EA89FB89808180618083C6
:1020B000EA89FB89808188608083EA89FB89808145
:1020C00080688083EA89FB8980818F7D8083DF91AE
:1020D000CF911F91FF90EF90DF90CF900895F894EB
:1020E0000C94B010A1E21A2EAA1BBB1BFD010DC05F
:1020F000AA1FBB1FEE1FFF1FA217B307E407F507B8
:1021000020F0A21BB30BE40BF50B661F771F881F93
:10211000991F1A9469F760957095809590959B0129
:10212000AC01BD01CF0108950E94A110B7FF089531
:10213000821B930B0895EE0FFF1F0590F491E02D85
:102140000994A29FB001B39FC001A39F700D811D90
:102150001124911DB29F700D811D1124911D0895B0
:04216000F894FFCF21
:10216400000000000000000000000000000000006B
:10217400000000000000000000000000000000005B
:10218400000000000000000000000000000000004B
:10219400000000000000000000000000000000003B
:1021A400000000000000000000000000000000002B
:1021B400000000000000000000000000000000001B
:1021C4000000000000000000FF0000750300000490
:1021D40004FFFFFFFFFFFFFFFF000058060E030090
:1021E400000000720B0000720B00000217030000D5
:1021F4000000A2070000A207000002200300000064
:102204000094040000940400000200000004040090
:1022140000000304000000020400000001040100A7
:102224000000FFFF000001000000000000000000AB
:102234000000000000000500FF0000530D530DFFD7
:102244005461736B20496E697420616374697661AB
:1022540074696F6E2E0A005461736B20412073748D
:102264006172747320657865637574696E67206143
:102274007420005461736B2041206765747320746B
:102284006865207265736F757263652061742000E0
:102294005461736B20412072656C656173657320B2
:1022A400746865207265736F7572636520616E640E
:1022B400207465726D696E617465732061742000A9
:1022C4005461736B20422073746172747320657857
:1022D40065637574696E6720617420005461736B63
:1022E4002042207465726D696E6174657320617437
:1022F40020005461736B20432073746172747320E3
:10230400657865637574696E672061742000546133
:10231400736B20432067657473207468652072654D
:10232400736F7572636520617420005461736B2050
:102334004320657869747320435320616E6420746C
:1023440065726D696E617465732061742074696D62
:10235400652000F5025A06FB02FB02000000009112
:102364000635067B010204029B018C017D01BE013E
:1023740057091403310600BE0157091D0331060134
:10238400BE0157092603310602B901B401AF01AAFF
:10239400010404670359034B033D037503B205B2FB
:1023A4000400012E0B000003040100B4054606805E
:1023B40000490B000002030100B004C4058000B909
:1023C4000B000001020100B60516078000DF0B00B8
:1023D40000000101004406C6065000F70C0000048A
:1023E400000100D60100000000010101010101010A
:1023F40000E907B707C00799078B04360778045F1D
:102404000777082D09E40660092B0897095408E9A1
:10241400099F084C0ADC068D0AD706D40AB20ADFE3
:102424000AF408EE0ABE083B080D0A006E616E004D
:10243400696E66006F766600000000009B0FA20DB7
:0A2444006A0FE80F3C0F560F480F17
:00000001FF
