:100000000C9436000C94070C0C942E0C0C945E008F
:100010000C945E000C945E000C945E000C945E00E8
:100020000C945E000C945E000C945E000C945E00D8
:100030000C945E000C945E000C945E000C945E00C8
:100040000C940C0B0C945E000C946A0D0C949C0D9B
:100050000C945E000C945E000C945E000C945E00A8
:100060000C945E000C945E00010CC20D11241FBEA6
:10007000CFEFD8E0DEBFCDBF13E0A0E0B1E0EAE211
:10008000FFE102C005900D92A43CB107D9F728E02A
:10009000A4ECB3E001C01D92A73FB207E1F710E066
:1000A000C6E3D0E004C02197FE010E947E0FC43356
:1000B000D107C9F70E94F20B0C94220F0C94000098
:1000C000E2E10E9405010895E9E00E94050108951A
:1000D000EAE00E9405010895E1E00E94050108950B
:1000E000E3E00E9405010895E7E00E9405010895FC
:1000F000E5E00E9405010895E0E00E9405010895F1
:10010000E2E00E9405010895E4E00E9405010895DF
:10011000ECE00E9405010895E8E00E9405010895C1
:10012000EEE00E9405010895E4E10E9405010895B2
:10013000E0E10E9405010895E7E10E9405010895AC
:10014000E6E00E9405010895EBE00E940501089594
:10015000EDE00E9405010895EFE00E940501089579
:10016000E1E10E9405010895E3E10E94050108957F
:10017000E5E10E9405010895E6E10E940501089568
:1001800021968A929A92AA92BA92CA92DA92EA92A4
:10019000FA920A931A932197E0916F01F0917001FE
:1001A0000080F181E02DC083D1830895C091710159
:1001B000D0917201E881F981C081D1812196199194
:1001C0000991F990E990D990C990B990A990999026
:1001D0008990219708952F903F90E7E6F1E0CDB701
:1001E000DEB7EDBFFEBF3F922F9208952F903F9054
:1001F000CDBFDEBF3F922F920895E0E80E94050137
:100200000895E0E40E94050108952F923F924F92D5
:100210005F926F927F922FB62F92CF93DF937E2EB5
:10022000F894E0910001EF5FE0930001E13011F4F8
:100230000E94EB00E0E0E0937F01E72DE07849F0D9
:100240000E945905F0918001F17071F00E940C0438
:100250000BC0E72DEC3140F4EE0FF0E0ED58FC4F11
:100260000190F081E02D0995F0917F01EF2FE17071
:1002700059F0F27011F00E94C0008F938F2F0E94EE
:1002800054038F910E94D6002091000121502093A9
:100290000001222311F40E94F600DF91CF912F90EC
:1002A0002FBE7F906F905F904F903F902F9008955A
:1002B000CF92DF92EF92FF920F931F93DC01EC91AC
:1002C000DB012C918E2F8170C82ED12CE12CF12CCA
:1002D0008E2F8F7090E0A0E0B0E0B695A79597952F
:1002E0008795DC01AA52BC4F8C91C81AD108E1084D
:1002F000F108EE70422F417050E060E070E0822F14
:100300008F7090E0A0E0B0E0B695A795979587959F
:10031000DC01AA52BC4F8C91481B5109610971093B
:10032000822F8E70970186010170112722273327B3
:100330000E2B4170552766277727482B81E090E0E8
:10034000041715072607370710F080E090E01F918B
:100350000F91FF90EF90DF90CF9008958F929F9232
:10036000AF92BF92EF92FF920F931F93CF93DF93C1
:100370007C014A015B01B694A7949794879442301C
:10038000510561057105E0F0440F551F8701040F09
:10039000151FE401CC0FDD1FCE0DDF1DB801CE010E
:1003A0000E945801892B61F0F80190818181288198
:1003B00039813183208398838983B501A401DBCF00
:1003C000DF91CF911F910F91FF90EF90BF90AF9071
:1003D0009F908F9008954F925F926F927F928F922D
:1003E0009F92AF92BF92CF92DF92EF92FF920F93C4
:1003F0001F93CF93DF9300D000D000D0CDB7DEB7EE
:100400008C016A017B01DC018C91282F30E040E0F7
:1004100050E029833A834B835C8346015701880C63
:10042000991CAA1CBB1C29813A814B815C8128152F
:1004300039054A055B0508F442C0240135013FEF48
:10044000431A530A630A730A89819A81AB81BC817A
:1004500084159505A605B70580F0B201660F771FD4
:10046000600F711FC401880F991F800F911F0E9498
:100470005801892B11F0530142013401660C771C9D
:10048000600E711ECC0CDD1CD801AC0DBD1DBE83F1
:10049000AD83B301CD010E945801892B81F0ED811C
:1004A000FE8190818181D3012D913C9111973183FF
:1004B00020839C9311968C9375016401AECF269690
:1004C0000FB6F894DEBF0FBECDBFDF91CF911F9165
:1004D0000F91FF90EF90DF90CF90BF90AF909F90E3
:1004E0008F907F906F905F904F900895E1E9F4E0D6
:1004F00040814F5F408350E060E070E0E82FEE0FF6
:10050000FF0BEE5EFC4F0190F081E02D238530E083
:10051000F901EA52FC4F908191509083FA01EE0F5D
:10052000FF1FEF56FB4F220F331F9170292B2083A3
:10053000818381E994E00C94AE01E1E9F4E040812B
:100540004F5F408350E060E070E0E82FEE0FFF0B5C
:10055000E85FFC4F0190F081E02D9381FA01EE0FEE
:10056000FF1FEF56FB4F9083818381E994E00C9449
:10057000AE01CF93DF93E1E9F4E080819FEF980F24
:100580009083D281C38190E0880F991FDC01AF5620
:10059000BB4F8D919C919383828341E050E060E05A
:1005A00070E0CF010E94EB018D2F9C2FDF91CF9146
:1005B00008958091770190917801A0917901B0918F
:1005C0007A018F3F2FEF9207A207B20731F004970D
:1005D000A105B10524F481E0089580E0089582E04A
:1005E0000895880F990BFC01EE5EFC4F0190F0819D
:1005F000E02D0084F185E02D3097E9F02281211172
:100600001AC021E02283DC01A85FBC4F0D90BC9191
:10061000A02D13968C9113978183808190E0FC012B
:10062000EA52FC4F208121502083880F991F2170AE
:10063000822B13968C930895880F990BFC01EE5E24
:10064000FC4F0190F081E02D0084F185E02D309782
:1006500061F02281213049F412822181FC01E85F9E
:10066000FC4F0190F081E02D2383089580917B0160
:1006700090917C01A0917D01B0917E014091770124
:10068000509178016091790170917A01481759076A
:100690006A077B0741F0E0917501F091760121E056
:1006A00024830C949D020895CF93DF93882391F0C7
:1006B000C0916F01D0917001E0917301F0917401CC
:1006C0008481833049F081E08483809177010E94A6
:1006D0009D0202C0C0E0D0E0E0917501F09176018A
:1006E000F0937401E0937301809171019091720114
:1006F0009093700180936F0180917B0130917C0118
:1007000020917D0190917E01809377013093780153
:100710002093790190937A0192E094830E94F102F0
:10072000CE01DF91CF910895809177010E941C0343
:10073000E0917301F09174018281882319F085E0C2
:100740008483089514820895CF93DF93282F220F76
:10075000330BF901E85FFC4FC081D1819A81F90127
:10076000EE5EFC4F0190F081E02D2485921770F42D
:10077000911105C095E09C8391E0909380010E94C7
:1007800076028A818F5F8A8380E001C084E0DF91F6
:10079000CF910895E82FEE0FFF0BE85FFC4F01901B
:1007A000F081E02D118210820C94AC0B1F93CF933B
:1007B000DF930E94B902182F892F492F092E000CB0
:1007C000550B660B770B40937B0150937C01609334
:1007D0007D0170937E01292F220F330BF901E85F11
:1007E000FC4FC081D181D0937601C0937501F9018E
:1007F000EE5EFC4F208131813093720120937101B4
:100800009C81953019F40E94CA031B8310928001C9
:10081000DF91CF911F910895E0917B01F0917C01D0
:10082000EE0FFF1FE85FFC4F0190F081E02D9091EB
:1008300093048381891730F40E9436030E94D60303
:1008400083E001C080E080937F01089581E0809380
:100850007F010C94D603EF92FF920F931F93CF93D7
:10086000DF93C1E001C0CC0F8A95EAF784E00E94D3
:10087000A4030EE613E0D0E0F80181918F018C23F0
:1008800019F08D2F0E94A403DF5FD430A9F70AE688
:1008900013E08CEDE82E82E0F82ED1E0F801819192
:1008A0008F018C2339F0F70180819181FC01D6877B
:1008B0000E949204F2E0EF0EF11C83E00E3618075E
:1008C00069F7DF91CF911F910F91FF90EF900895FD
:1008D0000E94400681110E946106E0917301F0912F
:1008E000740180819181892B21F0809177010E9490
:1008F00028080C9489070E94400681110E94610615
:10090000E0917301F091740180819181892B21F034
:10091000809177010E9428080C94710781E08093F0
:10092000C4030895AF92BF92CF92DF92EF92FF92ED
:100930000F931F93CF93DF93FC01A081B181AD9002
:10094000BC90E501AC89BD89109739F0428553858B
:100950006485758530E020E017C0D50155969C93DD
:100960008E93549757969C938E9356971582148224
:10097000138212825BC012968D919C9113973A2F2D
:100980002B2F009779F0DC011A96CD90DD90ED9039
:10099000FC901D974C155D056E057F0560F7CD0138
:1009A000A32FB22F93838283B583A483009719F07A
:1009B000EC01FD83EC83109729F01396FC93EE93E2
:1009C000129705C0D5015596FC93EE935497E50117
:1009D000AE89BF891A968D919D910D90BC91A02DE5
:1009E000088919892A893B8980179107A207B307CB
:1009F00080F4041715072607370728F0481759070A
:100A00006A077B0798F4D5015796FC93EE935697A7
:100A10000DC0041715072607370740F44817590774
:100A20006A077B0718F4E501FF8BEE8BDF91CF910E
:100A30001F910F91FF90EF90DF90CF90BF90AF90FC
:100A40000895CF93DF93DC01ED91FC911197019014
:100A5000F081E02D848995891296CD91DC911397D0
:100A6000A817B90711F4D58BC48B86899789A81765
:100A7000B90711F4D78BC68B209731F014968D915E
:100A80009C9115979D838C8314960D90BC91A02DFD
:100A9000109721F01396DC93CE931297868997894D
:100AA000892B21F484899589978B868BDF91CF914F
:100AB0000895EF92FF920F931F93CF93DF93FC0162
:100AC0008091C403882309F4B5C084859585A685E3
:100AD000B7850196A11DB11D84879587A687B78725
:100AE000408151816281738184179507A607B707FA
:100AF00009F0A0C040895189628973894F5F5F4FB7
:100B00006F4F7F4F84819581A681B78184179507A8
:100B1000A607B70718F440E050E0BA01408B518BAC
:100B2000628B738B1486158616861786C689D789BD
:100B3000209709F47FC08A859B85AC85BD854817C1
:100B400059076A077B0709F075C0CE01DC011296D0
:100B5000ED90FC901397E114F10471F0D7011A960F
:100B60000D911D912D913C911D97401751076207E2
:100B7000730711F4C701EACF2C813D81211531059E
:100B800029F0D9011396FC92EE921297E114F10428
:100B900029F0D70115963C932E9314972489358913
:100BA000C217D30711F4F58AE48AE114F10419F0AD
:100BB000F78AE68A04C024893589378B268B8F0112
:100BC000FC0113821282EA80FB80E881F9810280B5
:100BD000F381E02DCE0109954E815F81688579858D
:100BE000411551056105710509F18A859B85AC8523
:100BF000BD85840F951FA61FB71FF801448155813D
:100C000066817781481759076A077B0738F4841B88
:100C1000950BA60BB70B0197A109B1098A879B8792
:100C2000AC87BD87CE010E94920401C01E86E701F9
:100C3000209749F6DF91CF911F910F91FF90EF9090
:100C40000895FC0182810C94A4030E9440068091C7
:100C500068010895809368010E942B040E948E040D
:100C60000C9426040C94AB0BCF93C82F0E94D9028E
:100C7000811102C00E94E80B8C2FCF910C9464006C
:100C80008091D1038130D9F08091C9039091CA033A
:100C9000A091CB03B091CC03892B8A2B8B2B79F4B9
:100CA00081E04091CD035091CE036091CF037091CC
:100CB000D003452B462B472B19F480E0089581E0A3
:100CC00008951092D1031092CD031092CE0310928A
:100CD000CF031092D0031092C9031092CA0310924E
:100CE000CB031092CC038091C5039091C603A091D1
:100CF000C703B091C8038093D2039093D303A0930A
:100D0000D403B093D50308950E94EB0B8091D203D6
:100D10009091D303A091D403B091D5030196A11D66
:100D2000B11D8093D2039093D303A093D403B093C7
:100D3000D5038091CD039091CE03A091CF03B091C4
:100D4000D0030196A11DB11D8093CD039093CE03D6
:100D5000A093CF03B093D00308958091CD039091D9
:100D6000CE03A091CF03B091D0030097A105B105A8
:100D700069F14091D2035091D3036091D4037091F3
:100D8000D50341505109610971094093D203509331
:100D9000D3036093D4037093D5030197A109B109DC
:100DA0008093CD039093CE03A093CF03B093D00351
:100DB0008091D2039091D303A091D403B091D50335
:100DC000892B8A2B8B2B11F40C94E90B08958091BD
:100DD000CD039091CE03A091CF03B091D003892B86
:100DE0008A2B8B2B89F48091C9039091CA03A0911F
:100DF000CB03B091CC03892B8A2B8B2B29F40E9437
:100E0000EB0B81E08093D10308958091D103882377
:100E100021F01092D1030C94E90B08950E94EF0B7E
:100E20008091D2039091D303A091D403B091D503C4
:100E30000196A11DB11D8093D2039093D303A0937B
:100E4000D403B093D5038091C9039091CA03A091B4
:100E5000CB03B091CC030196A11DB11D8093C903B2
:100E60009093CA03A093CB03B093CC0308958091D1
:100E7000C9039091CA03A091CB03B091CC03009712
:100E8000A105B10569F14091D2035091D30360915E
:100E9000D4037091D5034150510961097109409300
:100EA000D2035093D3036093D4037093D503019777
:100EB000A109B1098093C9039093CA03A093CB03FE
:100EC000B093CC038091D2039091D303A091D4032B
:100ED000B091D503892B8A2B8B2B11F40C94ED0B3D
:100EE00008950E944006882311F083E1089580E070
:100EF0000895CF93C82F0E9440068C2F0E94A40310
:100F0000C82F8091800181110E940C048C2FCF91F9
:100F10000895CF930E944006882311F0C3E101C0D9
:100F2000C0E0E0917301F09174018281815082836D
:100F30000E94940381E080937F010E94D6038C2F4E
:100F4000CF910895CF93C82F0E944006E09173017E
:100F5000F09174018281815082838C2F0E94A403BE
:100F6000C82F811108C00E94940381E080937F0103
:100F70000E94D60307C0E0917301F0917401828151
:100F80008F5F82838C2FCF910895CF930E9440066C
:100F9000882311F0C3E101C0C0E0809177010E9475
:100FA0001C030E940C048091770190917801A0911C
:100FB0007901B0917A0140917B0150917C0160915F
:100FC0007D0170917E0184179507A607B70711F47C
:100FD0000E94F1028C2FCF910895CF93DF93EC0103
:100FE0000E944006882311F083E101C080E0409117
:100FF0007701509178016091790170917A014430C4
:1010000051056105710514F4488303C09091F701FF
:101010009883DF91CF9108950F931F93CF93C82F9B
:101020008B010E944006882311F083E101C080E01B
:10103000EC2FEE0FFF0BE85FFC4F0190F081E02DED
:1010400094819370F8019083CF911F910F9108952F
:10105000880F990BFC01E85FFC4FA081B181ED91F5
:10106000FC911197309769F01D921C922091F70125
:1010700093818481228314821382E92FF82F309781
:10108000B9F70895CF93C82F0E944006882311F026
:1010900083E101C080E0EC2FF0E0EE0FFF1FEE597E
:1010A000FC4FA081B1819091770112969C93129789
:1010B000E0917301F09174012081318114963C9389
:1010C0002E931397B183A083938111969C931197CC
:1010D0002C9193819695921760F430E0D901AA5231
:1010E000BC4F9C9191509C93220F331F9170292BE0
:1010F0002383CF910895CF93DF93C82F0E9440069A
:10110000882311F0D3E101C0D0E0EC2FF0E0EE0F26
:10111000FF1FEE59FC4F0190F081E02DA09173016B
:10112000B0917401818113968C931397838194817C
:101130008D939C93148213828091F70182830E9485
:101140000C048D2FDF91CF910895DC01ED91FC917E
:1011500084819581DC01ED91FC9109941F93CF93DB
:10116000DF93182FEB010E944006882311F083E1E2
:1011700001C080E0E12FF0E0EE0FFF1FE452FD4FD1
:101180000190F081E02D0190F081E02D0190F0813F
:10119000E02D40815181628173814C835D836E8338
:1011A0007F834481558166817781488359836A832F
:1011B0007B834085518562857385488759876A8717
:1011C0007B87DF91CF911F9108958F929F92AF926D
:1011D000BF92CF92DF92EF92FF920F931F93CF9324
:1011E000C82F8B010E944006882311F083E101C0C3
:1011F00080E0EC2FF0E0EE0FFF1FE452FD4F019076
:10120000F081E02D9685913029F5428553856485DE
:1012100075850190F081E02D0190F081E02DC0886E
:10122000D188E288F3884C155D056E057F0540F492
:1012300084809580A680B780480D591D6A1D7B1D4E
:101240004C195D096E097F09F8014083518362835F
:10125000738301C085E0CF911F910F91FF90EF90B4
:10126000DF90CF90BF90AF909F908F9008958F9216
:101270009F92AF92BF92CF92DF92EF92FF920F9325
:101280001F93CF93DF93D82F4A015B016801790147
:101290000E944006882311F0C3E101C0C0E0ED2F99
:1012A000F0E0EE0FFF1FE452FD4F0190F081E02DC2
:1012B0008685811130C0A081B1810D90BC91A02D97
:1012C00050964D915D916D917C915397480D591DAC
:1012D0006A1D7B1D14968D919D910D90BC91A02D42
:1012E00084179507A607B70740F4481B590B6A0BEC
:1012F0007B0B41505109610971094287538764870B
:101300007587C682D782E086F18681E08687CF0125
:101310000E94920401C0C7E08C2FDF91CF911F91F2
:101320000F91FF90EF90DF90CF90BF90AF909F9084
:101330008F9008958F929F92AF92BF92CF92DF923B
:10134000EF92FF920F931F93CF93DF93C82F4A0121
:101350005B01680179010E944006882311F0D3E106
:1013600001C0D0E0EC2FF0E0EE0FFF1FE452FD4F84
:101370000190F081E02D868581110EC082869386D2
:10138000A486B586C682D782E086F18681E086870C
:10139000CF010E94920401C0D7E08D2FDF91CF9141
:1013A0001F910F91FF90EF90DF90CF90BF90AF9083
:1013B0009F908F9008950F931F93CF93DF93C82F23
:1013C0000E944006882311F0D3E101C0D0E0EC2F49
:1013D000F0E0EE0FFF1FE452FD4F00811181F80194
:1013E0008685813031F4C8010E942105F8011686F6
:1013F00001C0D5E08D2FDF91CF911F910F910895FE
:1014000026E040E052EC61E070E08CEE93E00C945A
:10141000BD0E8F929F92AF92BF92CF92DF92EF92CA
:10142000FF9228EF31E0DC010E94770F4B015C0155
:10143000C12CD12C7601C814D904EA04FB0441F074
:101440000E94640B8FEFC81AD80AE80AF80AF3CF93
:10145000FF90EF90DF90CF90BF90AF909F908F90D4
:101460000895CF9380916D0190916E0101969093B4
:101470006E0180936D0168EF71E08CEE93E00E9445
:10148000940C60916D0170916E014AE050E08CEE19
:1014900093E00E94580D6CE072E08CEE93E00E94A5
:1014A000940C0E94640BAB01BC012AE030E08CEE8E
:1014B00093E00E94F70CC09169038C2F0E94A40056
:1014C00065E272E08CEE93E00E94940C8CE291E075
:1014D0000E94090A8C2F0E94A8006FE372E08CEE34
:1014E00093E00E94940C0E94640BAB01BC012AE0C3
:1014F00030E08CEE93E00E94F70CCF910C948C00BE
:1015000080916B0190916C01019690936C01809396
:101510006B016BE572E08CEE93E00E94940C60919D
:101520006B0170916C014AE050E08CEE93E00E94F8
:10153000580D88E592E00E94090A0C948C00CF9324
:101540008091690190916A01019690936A0180935C
:1015500069016FE672E08CEE93E00E94940C60915A
:10156000690170916A014AE050E08CEE93E00E94BC
:10157000580D63E872E08CEE93E00E94940C0E9498
:10158000640BAB01BC012AE030E08CEE93E00E94DA
:10159000F70C88EC90E00E94090AC09169038C2F37
:1015A0000E94A4006CE972E08CEE93E00E94940C1F
:1015B0008CE291E00E94090A8C2F0E94A80066EB41
:1015C00072E08CEE93E00E94940C0E94640BAB01DD
:1015D000BC012AE030E08CEE93E00E94F70CCF9142
:1015E0000C948C00809168030E94BC00809167037A
:1015F0000E94BC00809166030E94BC0082ED92E0D4
:101600000E94250F80E00E9468000C948C0081ED00
:1016100091E00C94FD0008951F920F920FB60F9267
:1016200011242F933F934F935F936F937F938F93E7
:101630009F93AF93BF93EF93FF938091E3039091B8
:10164000E403A091E503B091E6033091E20323E0C7
:10165000230F2D3720F40196A11DB11D05C026E8EA
:10166000230F0296A11DB11D2093E2038093E30393
:101670009093E403A093E503B093E6038091E7031E
:101680009091E803A091E903B091EA030196A11DAE
:10169000B11D8093E7039093E803A093E903B0930F
:1016A000EA030E94070BFF91EF91BF91AF919F91C9
:1016B0008F917F916F915F914F913F912F910F90FB
:1016C0000FBE0F901F9018952FB7F8946091E30309
:1016D0007091E4038091E5039091E6032FBF089594
:1016E00084B5826084BD84B5816084BD85B5826027
:1016F00085BD85B5816085BDEEE6F0E080818160C5
:101700008083E1E8F0E010828081826080838081C4
:1017100081608083E0E8F0E0808181608083E1EB9C
:10172000F0E0808184608083E0EBF0E08081816084
:101730008083EAE7F0E0808184608083808182603A
:101740008083808181608083808180688083109223
:10175000C1000895FFCFFFCFCF93DF93880F990B80
:10176000FC01EE5EFC4FC081D181AC81BD8111973F
:101770008A819B81A80FB91F2D85CD010197FD019D
:101780003297223019F424E830E002C020EA30E039
:101790002C93DC013C939E818F819083DF018E939B
:1017A000CF0107971E928A179B07E1F780E8DF01B8
:1017B00018978C93CF0144971E928A179B07E1F7E5
:1017C000A881B9817597ED93FC93DF91CF9108952E
:1017D000089578940895F894089578940895F89465
:1017E000089508950E94700B0E94F10B0E940B0B4C
:1017F0000E94000A8091EB030E94340680E090E092
:101800000895809172038093EB03089508951F92C9
:101810000F920FB60F9211242F933F934F935F9324
:101820006F937F938F939F93AF93BF93EF93FF93A8
:10183000E091F301F091F4010995FF91EF91BF91CF
:10184000AF919F918F917F916F915F914F913F9158
:101850002F910F900FBE0F901F9018951F920F920F
:101860000FB60F9211242F933F934F935F936F9373
:101870007F938F939F93AF93BF93EF93FF93E091E9
:10188000F501F091F6010995FF91EF91BF91AF91AC
:101890009F918F917F916F915F914F913F912F9188
:1018A0000F900FBE0F901F901895CF92DF92EF927E
:1018B000FF920F931F93CF93DF936C017A018B01FB
:1018C000C0E0D0E0CE15DF0581F0D8016D918D012B
:1018D000D601ED91FC910190F081E02DC6010995B2
:1018E000892B11F02196EECF7E01C701DF91CF91B8
:1018F0001F910F91FF90EF90DF90CF9008956115A9
:10190000710579F0FB0101900020E9F73197AF01F3
:10191000461B570BDC01ED91FC910280F381E02D19
:10192000099480E090E008950C947F0CDC01ED9127
:10193000FC910190F081E02D099463EA73E00C942E
:101940007F0C8F929F92AF92BF92EF92FF920F9374
:101950001F93CF93DF93CDB7DEB7A1970FB6F8945F
:10196000DEBF0FBECDBF7C01FA01CB0119A2223030
:1019700008F42AE08E010F5D1F4F822E912CA12CBE
:10198000B12CBF01A50194010E94550FF901CA01B4
:10199000015011096A3014F4605D01C0695CD8011E
:1019A0006C93232B242B252B61F7B801C7010E94D0
:1019B0007F0CA1960FB6F894DEBF0FBECDBFDF91AE
:1019C000CF911F910F91FF90EF90BF90AF909F909C
:1019D0008F9008952115310541F4DC01ED91FC91C2
:1019E0000190F081E02D642F09940C94A10C0F93C9
:1019F0001F93CF93DF93EC010E94EA0C8C01CE0180
:101A00000E949D0C800F911FDF91CF911F910F912C
:101A10000895CF92DF92EF92FF920F931F93CF938F
:101A2000DF932115310581F4DC01ED91FC910190EA
:101A3000F081E02D642FDF91CF911F910F91FF90E6
:101A4000EF90DF90CF9009942A30310501F577FFB0
:101A50001DC06A017B01EC016DE20E94960C8C01B5
:101A600044275527BA014C195D096E097F092AE000
:101A7000CE010E94A10C800F911FDF91CF911F9189
:101A80000F91FF90EF90DF90CF9008952AE0DF91C3
:101A9000CF911F910F91FF90EF90DF90CF900C941A
:101AA000A10C9A01AB01770F660B770B0C94090D13
:101AB0000F931F93CF93DF93EC010E94510D8C0184
:101AC000CE010E949D0C800F911FDF91CF911F913D
:101AD0000F9108951F920F920FB60F9211242F931A
:101AE0008F939F93EF93FF93E091FC03F091FD039D
:101AF0008081E0910204F091030482FD12C0908184
:101B0000809105048F5F8F7320910604821751F036
:101B1000E0910504F0E0E451FC4F958F80930504BB
:101B200001C08081FF91EF919F918F912F910F9034
:101B30000FBE0F901F9018951F920F920FB60F9225
:101B400011242F933F934F935F936F937F938F93C2
:101B50009F93AF93BF93EF93FF938CEE93E00E941C
:101B60002C0EFF91EF91BF91AF919F918F917F913B
:101B70006F915F914F913F912F910F900FBE0F90FA
:101B80001F901895ECEEF3E01382128288EE93E03A
:101B9000A0E0B0E084839583A683B78386EB93E0CF
:101BA0009183808385EC90E09587848784EC90E036
:101BB0009787868780EC90E0918B808B81EC90E01A
:101BC000938B828B82EC90E0958B848B86EC90E0FB
:101BD000978B868B118E128E138E148E0895FC01B6
:101BE000918D228D892F90E0805C9F4F821B9109FF
:101BF0008F7399270895FC01918D828D981731F08C
:101C0000828DE80FF11D858D90E008958FEF9FEF95
:101C10000895FC01918D828D981761F0828DDF010E
:101C2000A80FB11D5D968C91928D9F5F9F73928FCF
:101C300090E008958FEF9FEF0895FC01538D448D40
:101C4000252F30E0842F90E0821B930B541710F067
:101C5000CF96089501970895FC01848DDF01A80FA8
:101C6000B11DA35ABF4F2C91848D90E001968F73C4
:101C70009927848FA689B7892C93A089B1898C91E3
:101C8000837080648C93938D848D981306C0028832
:101C9000F389E02D80818F7D80830895EF92FF92FC
:101CA0000F931F93CF93DF93EC0181E0888F9B8D7F
:101CB0008C8D981305C0E889F989808185FD26C03F
:101CC000F62E0B8D10E00F5F1F4F0F731127E02EC4
:101CD0008C8DE8120CC00FB607FCFACFE889F989A1
:101CE000808185FFF5CFCE010E942C0EF1CF8B8D28
:101CF000FE01E80FF11DE35AFF4FF0829FB7F89401
:101D00000B8FEA89FB89808180620AC09FB7F894B3
:101D1000EE89FF896083E889F98980818370806416
:101D200080839FBF81E090E0DF91CF911F910F9161
:101D3000FF90EF900895CF93DF93EC01888D882377
:101D4000C9F0EA89FB89808185FD05C0A889B98928
:101D50008C9186FD0FC00FB607FCF5CF808185FF03
:101D6000F2CFA889B9898C9185FFEDCFCE010E9471
:101D70002C0EE7CFDF91CF910895CF92DF92EF92B3
:101D8000FF921F93CF93DF93EC016A017B01122F27
:101D9000E889F98982E080834115514E610571051A
:101DA000B1F060E079E08DE390E0A70196010E9438
:101DB000550FDA01C9010197A109B109B695A79597
:101DC000979587959C01211580E13807A8F0E8894F
:101DD000F989108260E874E88EE190E0A70196012D
:101DE0000E94550FDA01C9010197A109B109B69501
:101DF000A795979587959C01EC85FD853083EE85A9
:101E0000FF852083188EEC89FD891083EA89FB8980
:101E1000808180618083EA89FB89808188608083FA
:101E2000EA89FB89808180688083EA89FB898081D7
:101E30008F7D8083DF91CF911F91FF90EF90DF9096
:101E4000CF900895F8940C94930F0F931F93CF9312
:101E5000DF93E091F308F091F408238121FF1BC088
:101E60008C01D0E0C0E0F80181918F016091F3080E
:101E70007091F408DB011896ED91FC911997882375
:101E800031F00995892B79F3DFEFCFEFECCF8AE0C2
:101E90000995892B19F08FEF9FEF02C08D2F9C2F92
:101EA000DF91CF911F910F910895A1E21A2EAA1BE5
:101EB000BB1BFD010DC0AA1FBB1FEE1FFF1FA217FA
:101EC000B307E407F50720F0A21BB30BE40BF50BF7
:101ED000661F771F881F991F1A9469F76095709580
:101EE000809590959B01AC01BD01CF0108950E94A2
:101EF000840FB7FF0895821B930B0895EE0FFF1F09
:101F00000590F491E02D0994A29FB001B39FC00108
:101F1000A39F700D811D1124911DB29F700D811D15
:0A1F20001124911D0895F894FFCFDD
:101F2A0000000000000000000000000000000000A7
:101F3A000000000000000000000000000000000097
:101F4A000000000000000000000000000000000087
:101F5A000000000000000000000000000000000077
:101F6A000000000000000000000000000000000067
:101F7A000000000000000000000000000000000057
:101F8A000000000000000000FFFFFFFFFFFFFF004E
:101F9A000054030000DD03FFFFFFFFFFFFFFFF0008
:101FAA0000E4020000000000000000102700000208
:101FBA00ED0200000000720B0000720B000002F636
:101FCA000200000000A2070000A207000002FF02B0
:101FDA0000000000940400009404000002000000C5
:101FEA0005000000000304000000020400000001D4
:101FFA000401000000FFFF000001000000000000D3
:10200A000000000000000000000600FF00000400BD
:10201A00FF0000060C060CFF5461736B204120651B
:10202A007865637574696F6E202320005461736B41
:10203A0020412061637469766174696F6E207469E6
:10204A006D653A20005461736B2041206765747393
:10205A0020746865207265736F757263650A00542F
:10206A0061736B2041207465726D696E6174656479
:10207A002061742074696D653A20005461736B2085
:10208A004220657865637574696F6E202320005459
:10209A0061736B204320657865637574696F6E2080
:1020AA002320005461736B20432061637469766155
:1020BA0074696F6E2074696D653A20005461736BA0
:1020CA002043206765747320746865207265736F96
:1020DA00757263650A005461736B204320746572DC
:1020EA006D696E617465642061742074696D653A06
:1020FA00200053687574646F776E0D00AE019F01FE
:10210A0090018101D101A508EA02210603D101A5A6
:10211A0008F302210600D101A508FC02210601D11B
:10212A0001A5080503210602CC01C701C201BD01B0
:10213A00DD03460338032A031C0354038F04F10604
:10214A000001F20A0000030501008B04A105000149
:10215A00310A00000203010089049F040001800A79
:10216A000000010201008D04F10700019F0A00002E
:10217A00000101009F05A1065000AA0B00000400FF
:10218A000100EE01E9010201000001010101010162
:10219A00010000370705070E07E7067B0484066877
:1021AA0004AD0689072A063206420879077B08A287
:1021BA0007AE08ED07E50825063709C5079A09DBC2
:1021CA00090C080D0A006E616E00696E66006F7672
:1021DA006600000000004E0E550C1D0E9B0EEF0D02
:0421EA00090EFB0DD2
:00000001FF
